{
  "contractName": "Contribution",
  "abi": [
    {
      "anonymous": false,
      "inputs": [
        {
          "indexed": false,
          "internalType": "uint256",
          "name": "_projectId",
          "type": "uint256"
        },
        {
          "indexed": false,
          "internalType": "uint256",
          "name": "_amount",
          "type": "uint256"
        },
        {
          "indexed": false,
          "internalType": "address",
          "name": "_contributor",
          "type": "address"
        }
      ],
      "name": "NewContribution",
      "type": "event"
    },
    {
      "inputs": [],
      "name": "createTime",
      "outputs": [
        {
          "internalType": "uint256",
          "name": "",
          "type": "uint256"
        }
      ],
      "stateMutability": "view",
      "type": "function"
    },
    {
      "inputs": [],
      "name": "getProjects",
      "outputs": [
        {
          "components": [
            {
              "internalType": "string",
              "name": "title",
              "type": "string"
            },
            {
              "internalType": "string",
              "name": "pitch",
              "type": "string"
            },
            {
              "internalType": "string",
              "name": "description",
              "type": "string"
            },
            {
              "internalType": "string",
              "name": "logo",
              "type": "string"
            },
            {
              "internalType": "string",
              "name": "website",
              "type": "string"
            },
            {
              "internalType": "string",
              "name": "category",
              "type": "string"
            },
            {
              "internalType": "string",
              "name": "tags",
              "type": "string"
            },
            {
              "internalType": "string",
              "name": "projectImage",
              "type": "string"
            },
            {
              "internalType": "uint256",
              "name": "totalContribution",
              "type": "uint256"
            },
            {
              "internalType": "uint256",
              "name": "matchAmount",
              "type": "uint256"
            },
            {
              "internalType": "uint256",
              "name": "finalAmount",
              "type": "uint256"
            },
            {
              "internalType": "address payable",
              "name": "projectOwner",
              "type": "address"
            },
            {
              "internalType": "bool",
              "name": "paid",
              "type": "bool"
            }
          ],
          "internalType": "struct ProjectListing.Project[]",
          "name": "",
          "type": "tuple[]"
        }
      ],
      "stateMutability": "view",
      "type": "function"
    },
    {
      "inputs": [
        {
          "internalType": "string",
          "name": "_title",
          "type": "string"
        },
        {
          "internalType": "string",
          "name": "_pitch",
          "type": "string"
        },
        {
          "internalType": "string",
          "name": "_description",
          "type": "string"
        },
        {
          "internalType": "string",
          "name": "_logo",
          "type": "string"
        },
        {
          "internalType": "string",
          "name": "_website",
          "type": "string"
        },
        {
          "internalType": "string",
          "name": "_category",
          "type": "string"
        },
        {
          "internalType": "string",
          "name": "_tags",
          "type": "string"
        },
        {
          "internalType": "string",
          "name": "_projectImage",
          "type": "string"
        }
      ],
      "name": "listProject",
      "outputs": [],
      "stateMutability": "nonpayable",
      "type": "function"
    },
    {
      "inputs": [
        {
          "internalType": "uint256",
          "name": "_projectId",
          "type": "uint256"
        }
      ],
      "name": "acceptContribution",
      "outputs": [],
      "stateMutability": "payable",
      "type": "function"
    },
    {
      "inputs": [
        {
          "internalType": "uint256",
          "name": "_projectId",
          "type": "uint256"
        }
      ],
      "name": "getContributersByProjectId",
      "outputs": [
        {
          "internalType": "address[]",
          "name": "",
          "type": "address[]"
        }
      ],
      "stateMutability": "view",
      "type": "function"
    },
    {
      "inputs": [
        {
          "internalType": "uint256",
          "name": "_projectId",
          "type": "uint256"
        }
      ],
      "name": "getContributionPerProject",
      "outputs": [
        {
          "internalType": "uint256[]",
          "name": "",
          "type": "uint256[]"
        }
      ],
      "stateMutability": "view",
      "type": "function"
    }
  ],
  "bytecode": "0x608060405234801561001057600080fd5b5042600081905550611513806100276000396000f3fe6080604052600436106100555760003560e01c80632adb7b191461005a5780633f4a35801461009757806361dcd7ab146100c05780636b270ee4146100eb578063b2ae8c5914610107578063dcc6012814610144575b600080fd5b34801561006657600080fd5b50610081600480360381019061007c9190610b6b565b61016f565b60405161008e9190610c88565b60405180910390f35b3480156100a357600080fd5b506100be60048036038101906100b99190610df0565b610210565b005b3480156100cc57600080fd5b506100d5610366565b6040516100e29190610f95565b60405180910390f35b61010560048036038101906101009190610b6b565b61036c565b005b34801561011357600080fd5b5061012e60048036038101906101299190610b6b565b610494565b60405161013b919061106e565b60405180910390f35b34801561015057600080fd5b506101596104ff565b6040516101669190611360565b60405180910390f35b60606003600083815260200190815260200160002080548060200260200160405190810160405280929190818152602001828054801561020457602002820191906000526020600020905b8160009054906101000a900473ffffffffffffffffffffffffffffffffffffffff1673ffffffffffffffffffffffffffffffffffffffff16815260200190600101908083116101ba575b50505050509050919050565b6000600180816001815401808255809150500390600052602060002090600c020190508881600001908051906020019061024b929190610a7e565b5087816001019080519060200190610264929190610a7e565b508681600201908051906020019061027d929190610a7e565b5085816003019080519060200190610296929190610a7e565b50848160040190805190602001906102af929190610a7e565b50838160050190805190602001906102c8929190610a7e565b50828160060190805190602001906102e1929190610a7e565b50818160070190805190602001906102fa929190610a7e565b503381600b0160006101000a81548173ffffffffffffffffffffffffffffffffffffffff021916908373ffffffffffffffffffffffffffffffffffffffff160217905550600081600b0160146101000a81548160ff021916908315150217905550505050505050505050565b60005481565b346001828154811061038157610380611382565b5b90600052602060002090600c020160080160008282546103a191906113e0565b9250508190555060036000828152602001908152602001600020339080600181540180825580915050600190039060005260206000200160009091909190916101000a81548173ffffffffffffffffffffffffffffffffffffffff021916908373ffffffffffffffffffffffffffffffffffffffff160217905550600460008281526020019081526020016000203490806001815401808255809150506001900390600052602060002001600090919091909150557f1eba764fbf4185e41066033fbd0cc6b39d0d4214702f39d2223f630e38ce738381343360405161048993929190611445565b60405180910390a150565b6060600460008381526020019081526020016000208054806020026020016040519081016040528092919081815260200182805480156104f357602002820191906000526020600020905b8154815260200190600101908083116104df575b50505050509050919050565b60606001805480602002602001604051908101604052809291908181526020016000905b82821015610a7557838290600052602060002090600c0201604051806101a0016040529081600082018054610557906114ab565b80601f0160208091040260200160405190810160405280929190818152602001828054610583906114ab565b80156105d05780601f106105a5576101008083540402835291602001916105d0565b820191906000526020600020905b8154815290600101906020018083116105b357829003601f168201915b505050505081526020016001820180546105e9906114ab565b80601f0160208091040260200160405190810160405280929190818152602001828054610615906114ab565b80156106625780601f1061063757610100808354040283529160200191610662565b820191906000526020600020905b81548152906001019060200180831161064557829003601f168201915b5050505050815260200160028201805461067b906114ab565b80601f01602080910402602001604051908101604052809291908181526020018280546106a7906114ab565b80156106f45780601f106106c9576101008083540402835291602001916106f4565b820191906000526020600020905b8154815290600101906020018083116106d757829003601f168201915b5050505050815260200160038201805461070d906114ab565b80601f0160208091040260200160405190810160405280929190818152602001828054610739906114ab565b80156107865780601f1061075b57610100808354040283529160200191610786565b820191906000526020600020905b81548152906001019060200180831161076957829003601f168201915b5050505050815260200160048201805461079f906114ab565b80601f01602080910402602001604051908101604052809291908181526020018280546107cb906114ab565b80156108185780601f106107ed57610100808354040283529160200191610818565b820191906000526020600020905b8154815290600101906020018083116107fb57829003601f168201915b50505050508152602001600582018054610831906114ab565b80601f016020809104026020016040519081016040528092919081815260200182805461085d906114ab565b80156108aa5780601f1061087f576101008083540402835291602001916108aa565b820191906000526020600020905b81548152906001019060200180831161088d57829003601f168201915b505050505081526020016006820180546108c3906114ab565b80601f01602080910402602001604051908101604052809291908181526020018280546108ef906114ab565b801561093c5780601f106109115761010080835404028352916020019161093c565b820191906000526020600020905b81548152906001019060200180831161091f57829003601f168201915b50505050508152602001600782018054610955906114ab565b80601f0160208091040260200160405190810160405280929190818152602001828054610981906114ab565b80156109ce5780601f106109a3576101008083540402835291602001916109ce565b820191906000526020600020905b8154815290600101906020018083116109b157829003601f168201915b505050505081526020016008820154815260200160098201548152602001600a8201548152602001600b820160009054906101000a900473ffffffffffffffffffffffffffffffffffffffff1673ffffffffffffffffffffffffffffffffffffffff1673ffffffffffffffffffffffffffffffffffffffff168152602001600b820160149054906101000a900460ff16151515158152505081526020019060010190610523565b50505050905090565b828054610a8a906114ab565b90600052602060002090601f016020900481019282610aac5760008555610af3565b82601f10610ac557805160ff1916838001178555610af3565b82800160010185558215610af3579182015b82811115610af2578251825591602001919060010190610ad7565b5b509050610b009190610b04565b5090565b5b80821115610b1d576000816000905550600101610b05565b5090565b6000604051905090565b600080fd5b600080fd5b6000819050919050565b610b4881610b35565b8114610b5357600080fd5b50565b600081359050610b6581610b3f565b92915050565b600060208284031215610b8157610b80610b2b565b5b6000610b8f84828501610b56565b91505092915050565b600081519050919050565b600082825260208201905092915050565b6000819050602082019050919050565b600073ffffffffffffffffffffffffffffffffffffffff82169050919050565b6000610bef82610bc4565b9050919050565b610bff81610be4565b82525050565b6000610c118383610bf6565b60208301905092915050565b6000602082019050919050565b6000610c3582610b98565b610c3f8185610ba3565b9350610c4a83610bb4565b8060005b83811015610c7b578151610c628882610c05565b9750610c6d83610c1d565b925050600181019050610c4e565b5085935050505092915050565b60006020820190508181036000830152610ca28184610c2a565b905092915050565b600080fd5b600080fd5b6000601f19601f8301169050919050565b7f4e487b7100000000000000000000000000000000000000000000000000000000600052604160045260246000fd5b610cfd82610cb4565b810181811067ffffffffffffffff82111715610d1c57610d1b610cc5565b5b80604052505050565b6000610d2f610b21565b9050610d3b8282610cf4565b919050565b600067ffffffffffffffff821115610d5b57610d5a610cc5565b5b610d6482610cb4565b9050602081019050919050565b82818337600083830152505050565b6000610d93610d8e84610d40565b610d25565b905082815260208101848484011115610daf57610dae610caf565b5b610dba848285610d71565b509392505050565b600082601f830112610dd757610dd6610caa565b5b8135610de7848260208601610d80565b91505092915050565b600080600080600080600080610100898b031215610e1157610e10610b2b565b5b600089013567ffffffffffffffff811115610e2f57610e2e610b30565b5b610e3b8b828c01610dc2565b985050602089013567ffffffffffffffff811115610e5c57610e5b610b30565b5b610e688b828c01610dc2565b975050604089013567ffffffffffffffff811115610e8957610e88610b30565b5b610e958b828c01610dc2565b965050606089013567ffffffffffffffff811115610eb657610eb5610b30565b5b610ec28b828c01610dc2565b955050608089013567ffffffffffffffff811115610ee357610ee2610b30565b5b610eef8b828c01610dc2565b94505060a089013567ffffffffffffffff811115610f1057610f0f610b30565b5b610f1c8b828c01610dc2565b93505060c089013567ffffffffffffffff811115610f3d57610f3c610b30565b5b610f498b828c01610dc2565b92505060e089013567ffffffffffffffff811115610f6a57610f69610b30565b5b610f768b828c01610dc2565b9150509295985092959890939650565b610f8f81610b35565b82525050565b6000602082019050610faa6000830184610f86565b92915050565b600081519050919050565b600082825260208201905092915050565b6000819050602082019050919050565b610fe581610b35565b82525050565b6000610ff78383610fdc565b60208301905092915050565b6000602082019050919050565b600061101b82610fb0565b6110258185610fbb565b935061103083610fcc565b8060005b838110156110615781516110488882610feb565b975061105383611003565b925050600181019050611034565b5085935050505092915050565b600060208201905081810360008301526110888184611010565b905092915050565b600081519050919050565b600082825260208201905092915050565b6000819050602082019050919050565b600081519050919050565b600082825260208201905092915050565b60005b838110156110f65780820151818401526020810190506110db565b83811115611105576000848401525b50505050565b6000611116826110bc565b61112081856110c7565b93506111308185602086016110d8565b61113981610cb4565b840191505092915050565b600061114f82610bc4565b9050919050565b61115f81611144565b82525050565b60008115159050919050565b61117a81611165565b82525050565b60006101a083016000830151848203600086015261119e828261110b565b915050602083015184820360208601526111b8828261110b565b915050604083015184820360408601526111d2828261110b565b915050606083015184820360608601526111ec828261110b565b91505060808301518482036080860152611206828261110b565b91505060a083015184820360a0860152611220828261110b565b91505060c083015184820360c086015261123a828261110b565b91505060e083015184820360e0860152611254828261110b565b91505061010083015161126b610100860182610fdc565b50610120830151611280610120860182610fdc565b50610140830151611295610140860182610fdc565b506101608301516112aa610160860182611156565b506101808301516112bf610180860182611171565b508091505092915050565b60006112d68383611180565b905092915050565b6000602082019050919050565b60006112f682611090565b611300818561109b565b935083602082028501611312856110ac565b8060005b8581101561134e578484038952815161132f85826112ca565b945061133a836112de565b925060208a01995050600181019050611316565b50829750879550505050505092915050565b6000602082019050818103600083015261137a81846112eb565b905092915050565b7f4e487b7100000000000000000000000000000000000000000000000000000000600052603260045260246000fd5b7f4e487b7100000000000000000000000000000000000000000000000000000000600052601160045260246000fd5b60006113eb82610b35565b91506113f683610b35565b9250827fffffffffffffffffffffffffffffffffffffffffffffffffffffffffffffffff0382111561142b5761142a6113b1565b5b828201905092915050565b61143f81610be4565b82525050565b600060608201905061145a6000830186610f86565b6114676020830185610f86565b6114746040830184611436565b949350505050565b7f4e487b7100000000000000000000000000000000000000000000000000000000600052602260045260246000fd5b600060028204905060018216806114c357607f821691505b602082108114156114d7576114d661147c565b5b5091905056fea2646970667358221220502b4c9d6eacb03c8376b0266a38909a003ef8fb92d1c32fe6e27c15c83d5a8b64736f6c634300080a0033",
  "immutableReferences": {},
  "source": "// SPDX-License-Identifier: MIT\r\npragma solidity >=0.4.22 <0.9.0;\r\nimport \"./ProjectListing.sol\";\r\n\r\ncontract Contribution is ProjectListing {\r\n    //Mapping to store match amount corresponding to the project Id\r\n    mapping(uint256 => uint256)  projectIdToMatchAmount;\r\n\r\n    //Mapping to store project to contributors and indivusal contributions\r\n    mapping(uint256 => address[])  projectToContributors;\r\n    mapping(uint256 => uint256[])  projectToContribution;\r\n   \r\n    event NewContribution(\r\n        uint256 _projectId,\r\n        uint256 _amount,\r\n        address _contributor\r\n    );\r\n\r\n    function acceptContribution(uint256 _projectId) public payable {\r\n        //Changing the total contribution in structure of project\r\n        projects[_projectId].totalContribution += msg.value;\r\n\r\n        //Updating the projectToContributors mapping and storing the address of the contributors\r\n        projectToContributors[_projectId].push(msg.sender);\r\n\r\n        //Updating projectToContribution mapping\r\n        projectToContribution[_projectId].push(msg.value);\r\n\r\n        //emitting the New Contribution\r\n        emit NewContribution(_projectId, msg.value, msg.sender);\r\n    }\r\n\r\n    //Function to return the array of contributors for particular project\r\n    function getContributersByProjectId(uint256 _projectId)\r\n        public\r\n        view\r\n        returns (address[] memory)\r\n    {\r\n        return projectToContributors[_projectId];\r\n    }\r\n\r\n    //Function to return array of contribution for particular project\r\n    function getContributionPerProject(uint256 _projectId)\r\n        public\r\n        view\r\n        returns (uint256[] memory)\r\n    {\r\n        return projectToContribution[_projectId];\r\n    }\r\n\r\n    //Function to calculate swaure root\r\n    function sqrt(uint y) internal pure returns (uint z) {\r\n    if (y > 3) {\r\n        z = y;\r\n        uint x = y / 2 + 1;\r\n        while (x < z) {\r\n            z = x;\r\n            x = (y / x + x) / 2;\r\n        }\r\n    } else if (y != 0) {\r\n        z = 1;\r\n    }\r\n    return z;\r\n}\r\n\r\n    //Function to calculate match amount per project\r\n    function generatingMatchAmount(uint256 _projectId) internal {\r\n        uint256 sumOfSquareRoot = 0;\r\n        for (\r\n            uint256 i = 0;\r\n            i < getContributionPerProject(_projectId).length;\r\n            i++\r\n        ) {\r\n            sumOfSquareRoot += sqrt(getContributionPerProject(_projectId)[i]*100000);\r\n        }\r\n        projectIdToMatchAmount[_projectId] = (sumOfSquareRoot * sumOfSquareRoot)/100000;\r\n    }\r\n}\r\n",
  "sourcePath": "C:\\Users\\ss\\Desktop\\quadratic-crowd-funding\\blockchain\\contracts\\Contribution.sol",
  "compiler": {
    "name": "solc",
    "version": "0.8.10+commit.fc410830.Emscripten.clang"
  },
  "schemaVersion": "3.4.4",
  "updatedAt": "2022-01-12T17:34:53.003Z",
  "devdoc": {
    "kind": "dev",
    "methods": {},
    "version": 1
  },
  "userdoc": {
    "kind": "user",
    "methods": {},
    "version": 1
  }
}