{
  "contractName": "crowdFunding",
  "abi": [
    {
      "inputs": [
        {
          "internalType": "uint256",
          "name": "_target",
          "type": "uint256"
        },
        {
          "internalType": "uint256",
          "name": "_deadline",
          "type": "uint256"
        }
      ],
      "stateMutability": "nonpayable",
      "type": "constructor"
    },
    {
      "inputs": [
        {
          "internalType": "address",
          "name": "",
          "type": "address"
        }
      ],
      "name": "contributors",
      "outputs": [
        {
          "internalType": "uint256",
          "name": "",
          "type": "uint256"
        }
      ],
      "stateMutability": "view",
      "type": "function"
    },
    {
      "inputs": [],
      "name": "deadline",
      "outputs": [
        {
          "internalType": "uint256",
          "name": "",
          "type": "uint256"
        }
      ],
      "stateMutability": "view",
      "type": "function"
    },
    {
      "inputs": [],
      "name": "manager",
      "outputs": [
        {
          "internalType": "address",
          "name": "",
          "type": "address"
        }
      ],
      "stateMutability": "view",
      "type": "function"
    },
    {
      "inputs": [],
      "name": "minContribution",
      "outputs": [
        {
          "internalType": "uint256",
          "name": "",
          "type": "uint256"
        }
      ],
      "stateMutability": "view",
      "type": "function"
    },
    {
      "inputs": [],
      "name": "noOfContributors",
      "outputs": [
        {
          "internalType": "uint256",
          "name": "",
          "type": "uint256"
        }
      ],
      "stateMutability": "view",
      "type": "function"
    },
    {
      "inputs": [],
      "name": "numRequests",
      "outputs": [
        {
          "internalType": "uint256",
          "name": "",
          "type": "uint256"
        }
      ],
      "stateMutability": "view",
      "type": "function"
    },
    {
      "inputs": [],
      "name": "raisedAmount",
      "outputs": [
        {
          "internalType": "uint256",
          "name": "",
          "type": "uint256"
        }
      ],
      "stateMutability": "view",
      "type": "function"
    },
    {
      "inputs": [
        {
          "internalType": "uint256",
          "name": "",
          "type": "uint256"
        }
      ],
      "name": "requests",
      "outputs": [
        {
          "internalType": "string",
          "name": "description",
          "type": "string"
        },
        {
          "internalType": "address payable",
          "name": "recipient",
          "type": "address"
        },
        {
          "internalType": "uint256",
          "name": "value",
          "type": "uint256"
        },
        {
          "internalType": "bool",
          "name": "completed",
          "type": "bool"
        },
        {
          "internalType": "uint256",
          "name": "noOfVoters",
          "type": "uint256"
        }
      ],
      "stateMutability": "view",
      "type": "function"
    },
    {
      "inputs": [],
      "name": "target",
      "outputs": [
        {
          "internalType": "uint256",
          "name": "",
          "type": "uint256"
        }
      ],
      "stateMutability": "view",
      "type": "function"
    },
    {
      "inputs": [],
      "name": "sendEther",
      "outputs": [],
      "stateMutability": "payable",
      "type": "function"
    },
    {
      "inputs": [],
      "name": "getContractBalance",
      "outputs": [
        {
          "internalType": "uint256",
          "name": "",
          "type": "uint256"
        }
      ],
      "stateMutability": "view",
      "type": "function"
    },
    {
      "inputs": [],
      "name": "refund",
      "outputs": [],
      "stateMutability": "nonpayable",
      "type": "function"
    },
    {
      "inputs": [
        {
          "internalType": "string",
          "name": "_description",
          "type": "string"
        },
        {
          "internalType": "address payable",
          "name": "_recipient",
          "type": "address"
        },
        {
          "internalType": "uint256",
          "name": "_value",
          "type": "uint256"
        }
      ],
      "name": "createRequest",
      "outputs": [],
      "stateMutability": "nonpayable",
      "type": "function"
    },
    {
      "inputs": [
        {
          "internalType": "uint256",
          "name": "_requestsNo",
          "type": "uint256"
        }
      ],
      "name": "voteRequests",
      "outputs": [],
      "stateMutability": "nonpayable",
      "type": "function"
    },
    {
      "inputs": [
        {
          "internalType": "uint256",
          "name": "_requestsNo",
          "type": "uint256"
        }
      ],
      "name": "makePayment",
      "outputs": [],
      "stateMutability": "nonpayable",
      "type": "function"
    }
  ],
  "bytecode": "0x60806040523480156200001157600080fd5b5060405162001870380380620018708339818101604052810190620000379190620000e3565b8160048190555080426200004c919062000159565b600381905550606460028190555033600160006101000a81548173ffffffffffffffffffffffffffffffffffffffff021916908373ffffffffffffffffffffffffffffffffffffffff1602179055505050620001b6565b600080fd5b6000819050919050565b620000bd81620000a8565b8114620000c957600080fd5b50565b600081519050620000dd81620000b2565b92915050565b60008060408385031215620000fd57620000fc620000a3565b5b60006200010d85828601620000cc565b92505060206200012085828601620000cc565b9150509250929050565b7f4e487b7100000000000000000000000000000000000000000000000000000000600052601160045260246000fd5b60006200016682620000a8565b91506200017383620000a8565b9250827fffffffffffffffffffffffffffffffffffffffffffffffffffffffffffffffff03821115620001ab57620001aa6200012a565b5b828201905092915050565b6116aa80620001c66000396000f3fe6080604052600436106100e85760003560e01c8063590e1ae31161008a5780639fb42b1f116100595780639fb42b1f146102b3578063aaffadf3146102de578063c59ee1dc14610309578063d4b8399214610334576100e8565b8063590e1ae3146102075780636f9fb98a1461021e57806370ef09bd1461024957806381d12c5814610272576100e8565b806329dcb0cf116100c657806329dcb0cf1461015d578063481c6a75146101885780634e260f6f146101b35780635114cb52146101de576100e8565b80630e29df22146100ed5780631b16bb5c146100f75780631f6d494214610120575b600080fd5b6100f561035f565b005b34801561010357600080fd5b5061011e60048036038101906101199190610ef8565b6104b7565b005b34801561012c57600080fd5b5061014760048036038101906101429190610fa5565b61060a565b6040516101549190610fe1565b60405180910390f35b34801561016957600080fd5b50610172610622565b60405161017f9190610fe1565b60405180910390f35b34801561019457600080fd5b5061019d610628565b6040516101aa919061100b565b60405180910390f35b3480156101bf57600080fd5b506101c861064e565b6040516101d59190610fe1565b60405180910390f35b3480156101ea57600080fd5b5061020560048036038101906102009190611026565b610654565b005b34801561021357600080fd5b5061021c610848565b005b34801561022a57600080fd5b506102336109b7565b6040516102409190610fe1565b60405180910390f35b34801561025557600080fd5b50610270600480360381019061026b9190611026565b6109bf565b005b34801561027e57600080fd5b5061029960048036038101906102949190611026565b610b64565b6040516102aa959493929190611105565b60405180910390f35b3480156102bf57600080fd5b506102c8610c4f565b6040516102d59190610fe1565b60405180910390f35b3480156102ea57600080fd5b506102f3610c55565b6040516103009190610fe1565b60405180910390f35b34801561031557600080fd5b5061031e610c5b565b60405161032b9190610fe1565b60405180910390f35b34801561034057600080fd5b50610349610c61565b6040516103569190610fe1565b60405180910390f35b60035442106103a3576040517f08c379a000000000000000000000000000000000000000000000000000000000815260040161039a906111ab565b60405180910390fd5b60025434116103e7576040517f08c379a00000000000000000000000000000000000000000000000000000000081526004016103de90611217565b60405180910390fd5b60008060003373ffffffffffffffffffffffffffffffffffffffff1673ffffffffffffffffffffffffffffffffffffffff168152602001908152602001600020541415610447576006600081548092919061044190611266565b91905055505b346000803373ffffffffffffffffffffffffffffffffffffffff1673ffffffffffffffffffffffffffffffffffffffff168152602001908152602001600020600082825461049591906112af565b9250508190555034600560008282546104ae91906112af565b92505081905550565b600160009054906101000a900473ffffffffffffffffffffffffffffffffffffffff1673ffffffffffffffffffffffffffffffffffffffff163373ffffffffffffffffffffffffffffffffffffffff1614610547576040517f08c379a000000000000000000000000000000000000000000000000000000000815260040161053e90611377565b60405180910390fd5b600060076000600854815260200190815260200160002090506008600081548092919061057390611266565b919050555083816000019080519060200190610590929190610c67565b50828160010160006101000a81548173ffffffffffffffffffffffffffffffffffffffff021916908373ffffffffffffffffffffffffffffffffffffffff16021790555081816002018190555060008160030160006101000a81548160ff0219169083151502179055506000816004018190555050505050565b60006020528060005260406000206000915090505481565b60035481565b600160009054906101000a900473ffffffffffffffffffffffffffffffffffffffff1681565b60065481565b600160009054906101000a900473ffffffffffffffffffffffffffffffffffffffff1673ffffffffffffffffffffffffffffffffffffffff163373ffffffffffffffffffffffffffffffffffffffff16146106e4576040517f08c379a00000000000000000000000000000000000000000000000000000000081526004016106db90611377565b60405180910390fd5b60045460055410156106f557600080fd5b6000600760008381526020019081526020016000209050600015158160030160009054906101000a900460ff16151514610764576040517f08c379a000000000000000000000000000000000000000000000000000000000815260040161075b906113e3565b60405180910390fd5b60026006546107739190611432565b8160040154116107b8576040517f08c379a00000000000000000000000000000000000000000000000000000000081526004016107af906114af565b60405180910390fd5b8060010160009054906101000a900473ffffffffffffffffffffffffffffffffffffffff1673ffffffffffffffffffffffffffffffffffffffff166108fc82600201549081150290604051600060405180830381858888f19350505050158015610826573d6000803e3d6000fd5b5060018160030160006101000a81548160ff0219169083151502179055505050565b6003544211801561085c5750600454600554105b61089b576040517f08c379a00000000000000000000000000000000000000000000000000000000081526004016108929061151b565b60405180910390fd5b60008060003373ffffffffffffffffffffffffffffffffffffffff1673ffffffffffffffffffffffffffffffffffffffff16815260200190815260200160002054116108e657600080fd5b60003390508073ffffffffffffffffffffffffffffffffffffffff166108fc6000803373ffffffffffffffffffffffffffffffffffffffff1673ffffffffffffffffffffffffffffffffffffffff168152602001908152602001600020549081150290604051600060405180830381858888f1935050505015801561096f573d6000803e3d6000fd5b5060008060003373ffffffffffffffffffffffffffffffffffffffff1673ffffffffffffffffffffffffffffffffffffffff1681526020019081526020016000208190555050565b600047905090565b60008060003373ffffffffffffffffffffffffffffffffffffffff1673ffffffffffffffffffffffffffffffffffffffff1681526020019081526020016000205411610a40576040517f08c379a0000000000000000000000000000000000000000000000000000000008152600401610a3790611587565b60405180910390fd5b6000600760008381526020019081526020016000209050600015158160050160003373ffffffffffffffffffffffffffffffffffffffff1673ffffffffffffffffffffffffffffffffffffffff16815260200190815260200160002060009054906101000a900460ff16151514610aec576040517f08c379a0000000000000000000000000000000000000000000000000000000008152600401610ae3906115f3565b60405180910390fd5b60018160050160003373ffffffffffffffffffffffffffffffffffffffff1673ffffffffffffffffffffffffffffffffffffffff16815260200190815260200160002060006101000a81548160ff021916908315150217905550806004016000815480929190610b5b90611266565b91905055505050565b6007602052806000526040600020600091509050806000018054610b8790611642565b80601f0160208091040260200160405190810160405280929190818152602001828054610bb390611642565b8015610c005780601f10610bd557610100808354040283529160200191610c00565b820191906000526020600020905b815481529060010190602001808311610be357829003601f168201915b5050505050908060010160009054906101000a900473ffffffffffffffffffffffffffffffffffffffff16908060020154908060030160009054906101000a900460ff16908060040154905085565b60085481565b60025481565b60055481565b60045481565b828054610c7390611642565b90600052602060002090601f016020900481019282610c955760008555610cdc565b82601f10610cae57805160ff1916838001178555610cdc565b82800160010185558215610cdc579182015b82811115610cdb578251825591602001919060010190610cc0565b5b509050610ce99190610ced565b5090565b5b80821115610d06576000816000905550600101610cee565b5090565b6000604051905090565b600080fd5b600080fd5b600080fd5b600080fd5b6000601f19601f8301169050919050565b7f4e487b7100000000000000000000000000000000000000000000000000000000600052604160045260246000fd5b610d7182610d28565b810181811067ffffffffffffffff82111715610d9057610d8f610d39565b5b80604052505050565b6000610da3610d0a565b9050610daf8282610d68565b919050565b600067ffffffffffffffff821115610dcf57610dce610d39565b5b610dd882610d28565b9050602081019050919050565b82818337600083830152505050565b6000610e07610e0284610db4565b610d99565b905082815260208101848484011115610e2357610e22610d23565b5b610e2e848285610de5565b509392505050565b600082601f830112610e4b57610e4a610d1e565b5b8135610e5b848260208601610df4565b91505092915050565b600073ffffffffffffffffffffffffffffffffffffffff82169050919050565b6000610e8f82610e64565b9050919050565b610e9f81610e84565b8114610eaa57600080fd5b50565b600081359050610ebc81610e96565b92915050565b6000819050919050565b610ed581610ec2565b8114610ee057600080fd5b50565b600081359050610ef281610ecc565b92915050565b600080600060608486031215610f1157610f10610d14565b5b600084013567ffffffffffffffff811115610f2f57610f2e610d19565b5b610f3b86828701610e36565b9350506020610f4c86828701610ead565b9250506040610f5d86828701610ee3565b9150509250925092565b6000610f7282610e64565b9050919050565b610f8281610f67565b8114610f8d57600080fd5b50565b600081359050610f9f81610f79565b92915050565b600060208284031215610fbb57610fba610d14565b5b6000610fc984828501610f90565b91505092915050565b610fdb81610ec2565b82525050565b6000602082019050610ff66000830184610fd2565b92915050565b61100581610f67565b82525050565b60006020820190506110206000830184610ffc565b92915050565b60006020828403121561103c5761103b610d14565b5b600061104a84828501610ee3565b91505092915050565b600081519050919050565b600082825260208201905092915050565b60005b8381101561108d578082015181840152602081019050611072565b8381111561109c576000848401525b50505050565b60006110ad82611053565b6110b7818561105e565b93506110c781856020860161106f565b6110d081610d28565b840191505092915050565b6110e481610e84565b82525050565b60008115159050919050565b6110ff816110ea565b82525050565b600060a082019050818103600083015261111f81886110a2565b905061112e60208301876110db565b61113b6040830186610fd2565b61114860608301856110f6565b6111556080830184610fd2565b9695505050505050565b7f446561646c696e65206861732070617373656400000000000000000000000000600082015250565b600061119560138361105e565b91506111a08261115f565b602082019050919050565b600060208201905081810360008301526111c481611188565b9050919050565b7f4d696e696d756d20436f6e747269627574696f6e206973206e6f74206d657400600082015250565b6000611201601f8361105e565b915061120c826111cb565b602082019050919050565b60006020820190508181036000830152611230816111f4565b9050919050565b7f4e487b7100000000000000000000000000000000000000000000000000000000600052601160045260246000fd5b600061127182610ec2565b91507fffffffffffffffffffffffffffffffffffffffffffffffffffffffffffffffff8214156112a4576112a3611237565b5b600182019050919050565b60006112ba82610ec2565b91506112c583610ec2565b9250827fffffffffffffffffffffffffffffffffffffffffffffffffffffffffffffffff038211156112fa576112f9611237565b5b828201905092915050565b7f4f6e6c79206d616e616765722063616e2063616c6c20746869732066756e637460008201527f696f6e0000000000000000000000000000000000000000000000000000000000602082015250565b600061136160238361105e565b915061136c82611305565b604082019050919050565b6000602082019050818103600083015261139081611354565b9050919050565b7f546865207265717565737420686173206265656e20636f6d706c657465640000600082015250565b60006113cd601e8361105e565b91506113d882611397565b602082019050919050565b600060208201905081810360008301526113fc816113c0565b9050919050565b7f4e487b7100000000000000000000000000000000000000000000000000000000600052601260045260246000fd5b600061143d82610ec2565b915061144883610ec2565b92508261145857611457611403565b5b828204905092915050565b7f4d616a6f7269747920646f6573206e6f7420737570706f727400000000000000600082015250565b600061149960198361105e565b91506114a482611463565b602082019050919050565b600060208201905081810360008301526114c88161148c565b9050919050565b7f596f7520617265206e6f7420656c696769626c6520666f7220726566756e6400600082015250565b6000611505601f8361105e565b9150611510826114cf565b602082019050919050565b60006020820190508181036000830152611534816114f8565b9050919050565b7f796f75206d757374206265206120636f6e7472696275746f7200000000000000600082015250565b600061157160198361105e565b915061157c8261153b565b602082019050919050565b600060208201905081810360008301526115a081611564565b9050919050565b7f796f75206861766520616c726561647920766f74656400000000000000000000600082015250565b60006115dd60168361105e565b91506115e8826115a7565b602082019050919050565b6000602082019050818103600083015261160c816115d0565b9050919050565b7f4e487b7100000000000000000000000000000000000000000000000000000000600052602260045260246000fd5b6000600282049050600182168061165a57607f821691505b6020821081141561166e5761166d611613565b5b5091905056fea2646970667358221220d6889af846fde5bc1fed742f74dd29f59fc9f441b623f57497bebe03a2c890f364736f6c634300080a0033",
  "immutableReferences": {},
  "source": "pragma solidity >=0.5.0 <0.9.0;\r\n\r\n// SPDX-License-Identifier: MIT\r\n\r\n// crowd funding smart contract for reference only\r\ncontract crowdFunding {\r\n    mapping(address => uint256) public contributors;\r\n    address public manager;\r\n    uint256 public minContribution;\r\n    uint256 public deadline;\r\n    uint256 public target;\r\n    uint256 public raisedAmount;\r\n    uint256 public noOfContributors;\r\n\r\n    struct Request {\r\n        string description;\r\n        address payable recipient;\r\n        uint256 value;\r\n        bool completed;\r\n        uint256 noOfVoters;\r\n        mapping(address => bool) voters;\r\n    }\r\n\r\n    mapping(uint256 => Request) public requests;\r\n    uint256 public numRequests;\r\n\r\n    constructor(uint256 _target, uint256 _deadline) {\r\n        target = _target;\r\n        deadline = block.timestamp + _deadline;\r\n        minContribution = 100 wei;\r\n        manager = msg.sender;\r\n    }\r\n\r\n    function sendEther() public payable {\r\n        require(block.timestamp < deadline, \"Deadline has passed\");\r\n        require(msg.value > minContribution, \"Minimum Contribution is not met\");\r\n\r\n        // if contributor is contributing for the first time\r\n        if (contributors[msg.sender] == 0) {\r\n            noOfContributors++;\r\n        }\r\n        contributors[msg.sender] += msg.value;\r\n        raisedAmount += msg.value;\r\n    }\r\n\r\n    function getContractBalance() public view returns (uint256) {\r\n        return address(this).balance;\r\n    }\r\n\r\n    function refund() public {\r\n        require(\r\n            block.timestamp > deadline && raisedAmount < target,\r\n            \"You are not eligible for refund\"\r\n        );\r\n        require(contributors[msg.sender] > 0);\r\n        address payable user = payable(msg.sender);\r\n        user.transfer(contributors[msg.sender]);\r\n        contributors[msg.sender] = 0;\r\n    }\r\n\r\n    modifier onlyManager() {\r\n        require(msg.sender == manager, \"Only manager can call this function\");\r\n        _;\r\n    }\r\n\r\n    function createRequest(\r\n        string memory _description,\r\n        address payable _recipient,\r\n        uint256 _value\r\n    ) public onlyManager {\r\n        Request storage newRequest = requests[numRequests];\r\n        numRequests++;\r\n        newRequest.description = _description;\r\n        newRequest.recipient = _recipient;\r\n        newRequest.value = _value;\r\n        newRequest.completed = false;\r\n        newRequest.noOfVoters = 0;\r\n    }\r\n\r\n    function voteRequests(uint256 _requestsNo) public {\r\n        require(contributors[msg.sender] > 0, \"you must be a contributor\");\r\n        Request storage thisRequest = requests[_requestsNo];\r\n        require(\r\n            thisRequest.voters[msg.sender] == false,\r\n            \"you have already voted\"\r\n        );\r\n        thisRequest.voters[msg.sender] = true;\r\n        thisRequest.noOfVoters++;\r\n    }\r\n\r\n    function makePayment(uint256 _requestsNo) public onlyManager {\r\n        require(raisedAmount >= target);\r\n        Request storage thisRequest = requests[_requestsNo];\r\n        require(\r\n            thisRequest.completed == false,\r\n            \"The request has been completed\"\r\n        );\r\n        require(\r\n            thisRequest.noOfVoters > noOfContributors / 2,\r\n            \"Majority does not support\"\r\n        );\r\n        thisRequest.recipient.transfer(thisRequest.value);\r\n        thisRequest.completed = true;\r\n    }\r\n}\r\n",
  "sourcePath": "C:\\Users\\ss\\Desktop\\quadratic-crowd-funding\\blockchain\\contracts\\CrowdFunding.sol",
  "compiler": {
    "name": "solc",
    "version": "0.8.10+commit.fc410830.Emscripten.clang"
  },
  "schemaVersion": "3.4.4",
  "updatedAt": "2022-01-11T17:47:10.795Z",
  "devdoc": {
    "kind": "dev",
    "methods": {},
    "version": 1
  },
  "userdoc": {
    "kind": "user",
    "methods": {},
    "version": 1
  }
}