{
  "contractName": "ProjectListing",
  "abi": [
    {
      "inputs": [],
      "stateMutability": "nonpayable",
      "type": "constructor"
    },
    {
      "inputs": [],
      "name": "createTime",
      "outputs": [
        {
          "internalType": "uint256",
          "name": "",
          "type": "uint256"
        }
      ],
      "stateMutability": "view",
      "type": "function"
    },
    {
      "inputs": [
        {
          "internalType": "string",
          "name": "_title",
          "type": "string"
        },
        {
          "internalType": "string",
          "name": "_pitch",
          "type": "string"
        },
        {
          "internalType": "string",
          "name": "_description",
          "type": "string"
        },
        {
          "internalType": "string",
          "name": "_logo",
          "type": "string"
        },
        {
          "internalType": "string",
          "name": "_website",
          "type": "string"
        },
        {
          "internalType": "string",
          "name": "_category",
          "type": "string"
        },
        {
          "internalType": "string",
          "name": "_tags",
          "type": "string"
        },
        {
          "internalType": "string",
          "name": "_projectImage",
          "type": "string"
        }
      ],
      "name": "listProject",
      "outputs": [],
      "stateMutability": "nonpayable",
      "type": "function"
    },
    {
      "inputs": [],
      "name": "getProjects",
      "outputs": [
        {
          "components": [
            {
              "internalType": "string",
              "name": "title",
              "type": "string"
            },
            {
              "internalType": "string",
              "name": "pitch",
              "type": "string"
            },
            {
              "internalType": "string",
              "name": "description",
              "type": "string"
            },
            {
              "internalType": "string",
              "name": "logo",
              "type": "string"
            },
            {
              "internalType": "string",
              "name": "website",
              "type": "string"
            },
            {
              "internalType": "string",
              "name": "category",
              "type": "string"
            },
            {
              "internalType": "string",
              "name": "tags",
              "type": "string"
            },
            {
              "internalType": "string",
              "name": "projectImage",
              "type": "string"
            },
            {
              "internalType": "uint256",
              "name": "totalContribution",
              "type": "uint256"
            },
            {
              "internalType": "uint256",
              "name": "matchAmount",
              "type": "uint256"
            },
            {
              "internalType": "uint256",
              "name": "finalAmount",
              "type": "uint256"
            },
            {
              "internalType": "address payable",
              "name": "projectOwner",
              "type": "address"
            },
            {
              "internalType": "bool",
              "name": "paid",
              "type": "bool"
            }
          ],
          "internalType": "struct ProjectListing.Project[]",
          "name": "",
          "type": "tuple[]"
        }
      ],
      "stateMutability": "view",
      "type": "function"
    }
  ],
  "bytecode": "0x608060405234801561001057600080fd5b5042600081905550610ef8806100276000396000f3fe608060405234801561001057600080fd5b50600436106100415760003560e01c80633f4a35801461004657806361dcd7ab14610062578063dcc6012814610080575b600080fd5b610060600480360381019061005b9190610976565b61009e565b005b61006a6101f4565b6040516100779190610b25565b60405180910390f35b6100886101fa565b6040516100959190610e3f565b60405180910390f35b6000600180816001815401808255809150500390600052602060002090600c02019050888160000190805190602001906100d9929190610779565b50878160010190805190602001906100f2929190610779565b508681600201908051906020019061010b929190610779565b5085816003019080519060200190610124929190610779565b508481600401908051906020019061013d929190610779565b5083816005019080519060200190610156929190610779565b508281600601908051906020019061016f929190610779565b5081816007019080519060200190610188929190610779565b503381600b0160006101000a81548173ffffffffffffffffffffffffffffffffffffffff021916908373ffffffffffffffffffffffffffffffffffffffff160217905550600081600b0160146101000a81548160ff021916908315150217905550505050505050505050565b60005481565b60606001805480602002602001604051908101604052809291908181526020016000905b8282101561077057838290600052602060002090600c0201604051806101a001604052908160008201805461025290610e90565b80601f016020809104026020016040519081016040528092919081815260200182805461027e90610e90565b80156102cb5780601f106102a0576101008083540402835291602001916102cb565b820191906000526020600020905b8154815290600101906020018083116102ae57829003601f168201915b505050505081526020016001820180546102e490610e90565b80601f016020809104026020016040519081016040528092919081815260200182805461031090610e90565b801561035d5780601f106103325761010080835404028352916020019161035d565b820191906000526020600020905b81548152906001019060200180831161034057829003601f168201915b5050505050815260200160028201805461037690610e90565b80601f01602080910402602001604051908101604052809291908181526020018280546103a290610e90565b80156103ef5780601f106103c4576101008083540402835291602001916103ef565b820191906000526020600020905b8154815290600101906020018083116103d257829003601f168201915b5050505050815260200160038201805461040890610e90565b80601f016020809104026020016040519081016040528092919081815260200182805461043490610e90565b80156104815780601f1061045657610100808354040283529160200191610481565b820191906000526020600020905b81548152906001019060200180831161046457829003601f168201915b5050505050815260200160048201805461049a90610e90565b80601f01602080910402602001604051908101604052809291908181526020018280546104c690610e90565b80156105135780601f106104e857610100808354040283529160200191610513565b820191906000526020600020905b8154815290600101906020018083116104f657829003601f168201915b5050505050815260200160058201805461052c90610e90565b80601f016020809104026020016040519081016040528092919081815260200182805461055890610e90565b80156105a55780601f1061057a576101008083540402835291602001916105a5565b820191906000526020600020905b81548152906001019060200180831161058857829003601f168201915b505050505081526020016006820180546105be90610e90565b80601f01602080910402602001604051908101604052809291908181526020018280546105ea90610e90565b80156106375780601f1061060c57610100808354040283529160200191610637565b820191906000526020600020905b81548152906001019060200180831161061a57829003601f168201915b5050505050815260200160078201805461065090610e90565b80601f016020809104026020016040519081016040528092919081815260200182805461067c90610e90565b80156106c95780601f1061069e576101008083540402835291602001916106c9565b820191906000526020600020905b8154815290600101906020018083116106ac57829003601f168201915b505050505081526020016008820154815260200160098201548152602001600a8201548152602001600b820160009054906101000a900473ffffffffffffffffffffffffffffffffffffffff1673ffffffffffffffffffffffffffffffffffffffff1673ffffffffffffffffffffffffffffffffffffffff168152602001600b820160149054906101000a900460ff1615151515815250508152602001906001019061021e565b50505050905090565b82805461078590610e90565b90600052602060002090601f0160209004810192826107a757600085556107ee565b82601f106107c057805160ff19168380011785556107ee565b828001600101855582156107ee579182015b828111156107ed5782518255916020019190600101906107d2565b5b5090506107fb91906107ff565b5090565b5b80821115610818576000816000905550600101610800565b5090565b6000604051905090565b600080fd5b600080fd5b600080fd5b600080fd5b6000601f19601f8301169050919050565b7f4e487b7100000000000000000000000000000000000000000000000000000000600052604160045260246000fd5b6108838261083a565b810181811067ffffffffffffffff821117156108a2576108a161084b565b5b80604052505050565b60006108b561081c565b90506108c1828261087a565b919050565b600067ffffffffffffffff8211156108e1576108e061084b565b5b6108ea8261083a565b9050602081019050919050565b82818337600083830152505050565b6000610919610914846108c6565b6108ab565b90508281526020810184848401111561093557610934610835565b5b6109408482856108f7565b509392505050565b600082601f83011261095d5761095c610830565b5b813561096d848260208601610906565b91505092915050565b600080600080600080600080610100898b03121561099757610996610826565b5b600089013567ffffffffffffffff8111156109b5576109b461082b565b5b6109c18b828c01610948565b985050602089013567ffffffffffffffff8111156109e2576109e161082b565b5b6109ee8b828c01610948565b975050604089013567ffffffffffffffff811115610a0f57610a0e61082b565b5b610a1b8b828c01610948565b965050606089013567ffffffffffffffff811115610a3c57610a3b61082b565b5b610a488b828c01610948565b955050608089013567ffffffffffffffff811115610a6957610a6861082b565b5b610a758b828c01610948565b94505060a089013567ffffffffffffffff811115610a9657610a9561082b565b5b610aa28b828c01610948565b93505060c089013567ffffffffffffffff811115610ac357610ac261082b565b5b610acf8b828c01610948565b92505060e089013567ffffffffffffffff811115610af057610aef61082b565b5b610afc8b828c01610948565b9150509295985092959890939650565b6000819050919050565b610b1f81610b0c565b82525050565b6000602082019050610b3a6000830184610b16565b92915050565b600081519050919050565b600082825260208201905092915050565b6000819050602082019050919050565b600081519050919050565b600082825260208201905092915050565b60005b83811015610ba6578082015181840152602081019050610b8b565b83811115610bb5576000848401525b50505050565b6000610bc682610b6c565b610bd08185610b77565b9350610be0818560208601610b88565b610be98161083a565b840191505092915050565b610bfd81610b0c565b82525050565b600073ffffffffffffffffffffffffffffffffffffffff82169050919050565b6000610c2e82610c03565b9050919050565b610c3e81610c23565b82525050565b60008115159050919050565b610c5981610c44565b82525050565b60006101a0830160008301518482036000860152610c7d8282610bbb565b91505060208301518482036020860152610c978282610bbb565b91505060408301518482036040860152610cb18282610bbb565b91505060608301518482036060860152610ccb8282610bbb565b91505060808301518482036080860152610ce58282610bbb565b91505060a083015184820360a0860152610cff8282610bbb565b91505060c083015184820360c0860152610d198282610bbb565b91505060e083015184820360e0860152610d338282610bbb565b915050610100830151610d4a610100860182610bf4565b50610120830151610d5f610120860182610bf4565b50610140830151610d74610140860182610bf4565b50610160830151610d89610160860182610c35565b50610180830151610d9e610180860182610c50565b508091505092915050565b6000610db58383610c5f565b905092915050565b6000602082019050919050565b6000610dd582610b40565b610ddf8185610b4b565b935083602082028501610df185610b5c565b8060005b85811015610e2d5784840389528151610e0e8582610da9565b9450610e1983610dbd565b925060208a01995050600181019050610df5565b50829750879550505050505092915050565b60006020820190508181036000830152610e598184610dca565b905092915050565b7f4e487b7100000000000000000000000000000000000000000000000000000000600052602260045260246000fd5b60006002820490506001821680610ea857607f821691505b60208210811415610ebc57610ebb610e61565b5b5091905056fea264697066735822122019ccdafa54bd6b6509ed2530293f54f331f3f6ece8299fdaa0f82d0a0f54373164736f6c634300080a0033",
  "immutableReferences": {},
  "source": "// SPDX-License-Identifier: MIT\r\npragma solidity >=0.4.22 <0.9.0;\r\n\r\ncontract ProjectListing {\r\n    //Making project's structure\r\n    struct Project {\r\n        string title;\r\n        string pitch;\r\n        string description;\r\n        string logo;\r\n        string website;\r\n        string category;\r\n        string tags;\r\n        string projectImage;\r\n        uint256 totalContribution;\r\n        uint256 matchAmount;\r\n        uint256 finalAmount;\r\n        address payable projectOwner;\r\n        bool paid;\r\n    }\r\n    uint256 public createTime;\r\n    //Array to store all the listed projects\r\n    Project[]  projects;\r\n    \r\n    constructor(){\r\n        createTime = block.timestamp;\r\n    }\r\n    //Function to list the projects\r\n    function listProject(\r\n        string memory _title,\r\n        string memory _pitch,\r\n        string memory _description,\r\n        string memory _logo,\r\n        string memory _website,\r\n        string memory _category,\r\n        string memory _tags,\r\n        string memory _projectImage\r\n    ) public {\r\n        Project storage newProject = projects.push();\r\n        newProject.title=_title;\r\n        newProject.pitch=_pitch;\r\n        newProject.description=_description;\r\n        newProject.logo=_logo;\r\n        newProject.website=_website;\r\n        newProject.category=_category;\r\n        newProject.tags=_tags;\r\n        newProject.projectImage=_projectImage;\r\n        newProject.projectOwner=payable(msg.sender);\r\n        newProject.paid=false;\r\n    }\r\n\r\n    //Function to get all the projects listed. Function is to be made to access the while array.\r\n    function getProjects() public view returns (Project[] memory) {\r\n        return projects;\r\n    }\r\n    \r\n}\r\n",
  "sourcePath": "C:\\Users\\ss\\Desktop\\quadratic-crowd-funding\\blockchain\\contracts\\ProjectListing.sol",
  "compiler": {
    "name": "solc",
    "version": "0.8.10+commit.fc410830.Emscripten.clang"
  },
  "schemaVersion": "3.4.4",
  "updatedAt": "2022-01-12T17:34:53.053Z",
  "devdoc": {
    "kind": "dev",
    "methods": {},
    "version": 1
  },
  "userdoc": {
    "kind": "user",
    "methods": {},
    "version": 1
  }
}