{
  "contractName": "Sponsors",
  "abi": [
    {
      "inputs": [
        {
          "internalType": "uint256",
          "name": "_minAmount",
          "type": "uint256"
        }
      ],
      "stateMutability": "nonpayable",
      "type": "constructor"
    },
    {
      "anonymous": false,
      "inputs": [
        {
          "indexed": false,
          "internalType": "uint256",
          "name": "_projectId",
          "type": "uint256"
        },
        {
          "indexed": false,
          "internalType": "uint256",
          "name": "_amount",
          "type": "uint256"
        },
        {
          "indexed": false,
          "internalType": "address",
          "name": "_contributor",
          "type": "address"
        }
      ],
      "name": "NewContribution",
      "type": "event"
    },
    {
      "anonymous": false,
      "inputs": [
        {
          "indexed": false,
          "internalType": "address",
          "name": "_sponsor",
          "type": "address"
        },
        {
          "indexed": false,
          "internalType": "uint256",
          "name": "_totalAmount",
          "type": "uint256"
        }
      ],
      "name": "sponsorDonation",
      "type": "event"
    },
    {
      "inputs": [
        {
          "internalType": "uint256",
          "name": "_projectId",
          "type": "uint256"
        }
      ],
      "name": "acceptContribution",
      "outputs": [],
      "stateMutability": "payable",
      "type": "function",
      "payable": true
    },
    {
      "inputs": [
        {
          "internalType": "uint256",
          "name": "_projectId",
          "type": "uint256"
        }
      ],
      "name": "getContributersByProjectId",
      "outputs": [
        {
          "internalType": "address[]",
          "name": "",
          "type": "address[]"
        }
      ],
      "stateMutability": "view",
      "type": "function",
      "constant": true
    },
    {
      "inputs": [
        {
          "internalType": "uint256",
          "name": "_projectId",
          "type": "uint256"
        }
      ],
      "name": "getContributionPerProject",
      "outputs": [
        {
          "internalType": "uint256[]",
          "name": "",
          "type": "uint256[]"
        }
      ],
      "stateMutability": "view",
      "type": "function",
      "constant": true
    },
    {
      "inputs": [],
      "name": "getProjects",
      "outputs": [
        {
          "components": [
            {
              "internalType": "string",
              "name": "title",
              "type": "string"
            },
            {
              "internalType": "string",
              "name": "pitch",
              "type": "string"
            },
            {
              "internalType": "string",
              "name": "description",
              "type": "string"
            },
            {
              "internalType": "string",
              "name": "logo",
              "type": "string"
            },
            {
              "internalType": "string",
              "name": "website",
              "type": "string"
            },
            {
              "internalType": "string",
              "name": "category",
              "type": "string"
            },
            {
              "internalType": "string",
              "name": "tags",
              "type": "string"
            },
            {
              "internalType": "uint256",
              "name": "totalContribution",
              "type": "uint256"
            },
            {
              "internalType": "uint256",
              "name": "matchAmount",
              "type": "uint256"
            },
            {
              "internalType": "uint256",
              "name": "finalAmount",
              "type": "uint256"
            },
            {
              "internalType": "address payable",
              "name": "projectOwner",
              "type": "address"
            },
            {
              "internalType": "bool",
              "name": "paid",
              "type": "bool"
            }
          ],
          "internalType": "struct ProjectListing.Project[]",
          "name": "",
          "type": "tuple[]"
        }
      ],
      "stateMutability": "view",
      "type": "function",
      "constant": true
    },
    {
      "inputs": [
        {
          "internalType": "string",
          "name": "_title",
          "type": "string"
        },
        {
          "internalType": "string",
          "name": "_pitch",
          "type": "string"
        },
        {
          "internalType": "string",
          "name": "_description",
          "type": "string"
        },
        {
          "internalType": "string",
          "name": "_logo",
          "type": "string"
        },
        {
          "internalType": "string",
          "name": "_website",
          "type": "string"
        },
        {
          "internalType": "string",
          "name": "_category",
          "type": "string"
        },
        {
          "internalType": "string",
          "name": "_tags",
          "type": "string"
        }
      ],
      "name": "listProject",
      "outputs": [],
      "stateMutability": "nonpayable",
      "type": "function"
    },
    {
      "inputs": [],
      "name": "manager",
      "outputs": [
        {
          "internalType": "address",
          "name": "",
          "type": "address"
        }
      ],
      "stateMutability": "view",
      "type": "function",
      "constant": true
    },
    {
      "inputs": [],
      "name": "noOfSponsors",
      "outputs": [
        {
          "internalType": "uint256",
          "name": "",
          "type": "uint256"
        }
      ],
      "stateMutability": "view",
      "type": "function",
      "constant": true
    },
    {
      "inputs": [
        {
          "internalType": "uint256",
          "name": "",
          "type": "uint256"
        }
      ],
      "name": "projects",
      "outputs": [
        {
          "internalType": "string",
          "name": "title",
          "type": "string"
        },
        {
          "internalType": "string",
          "name": "pitch",
          "type": "string"
        },
        {
          "internalType": "string",
          "name": "description",
          "type": "string"
        },
        {
          "internalType": "string",
          "name": "logo",
          "type": "string"
        },
        {
          "internalType": "string",
          "name": "website",
          "type": "string"
        },
        {
          "internalType": "string",
          "name": "category",
          "type": "string"
        },
        {
          "internalType": "string",
          "name": "tags",
          "type": "string"
        },
        {
          "internalType": "uint256",
          "name": "totalContribution",
          "type": "uint256"
        },
        {
          "internalType": "uint256",
          "name": "matchAmount",
          "type": "uint256"
        },
        {
          "internalType": "uint256",
          "name": "finalAmount",
          "type": "uint256"
        },
        {
          "internalType": "address payable",
          "name": "projectOwner",
          "type": "address"
        },
        {
          "internalType": "bool",
          "name": "paid",
          "type": "bool"
        }
      ],
      "stateMutability": "view",
      "type": "function",
      "constant": true
    },
    {
      "inputs": [
        {
          "internalType": "address",
          "name": "",
          "type": "address"
        }
      ],
      "name": "sponsors",
      "outputs": [
        {
          "internalType": "uint256",
          "name": "",
          "type": "uint256"
        }
      ],
      "stateMutability": "view",
      "type": "function",
      "constant": true
    },
    {
      "inputs": [],
      "name": "sponsorsDeadline",
      "outputs": [
        {
          "internalType": "uint256",
          "name": "",
          "type": "uint256"
        }
      ],
      "stateMutability": "view",
      "type": "function",
      "constant": true
    },
    {
      "inputs": [],
      "name": "sponsorsMinAmount",
      "outputs": [
        {
          "internalType": "uint256",
          "name": "",
          "type": "uint256"
        }
      ],
      "stateMutability": "view",
      "type": "function",
      "constant": true
    },
    {
      "inputs": [],
      "name": "sponsorsRaisedAmount",
      "outputs": [
        {
          "internalType": "uint256",
          "name": "",
          "type": "uint256"
        }
      ],
      "stateMutability": "view",
      "type": "function",
      "constant": true
    },
    {
      "inputs": [],
      "name": "sendSponsorAmount",
      "outputs": [],
      "stateMutability": "payable",
      "type": "function",
      "payable": true
    },
    {
      "inputs": [],
      "name": "generateMatchAmount",
      "outputs": [],
      "stateMutability": "nonpayable",
      "type": "function"
    },
    {
      "inputs": [
        {
          "internalType": "uint256",
          "name": "_projectId",
          "type": "uint256"
        }
      ],
      "name": "sendFinalAmount",
      "outputs": [],
      "stateMutability": "payable",
      "type": "function",
      "payable": true
    }
  ],
  "bytecode": "0x60806040523480156200001157600080fd5b5060405162002a3d38038062002a3d8339818101604052810190620000379190620000dd565b806005819055506202a300426200004f91906200013e565b60088190555033600960006101000a81548173ffffffffffffffffffffffffffffffffffffffff021916908373ffffffffffffffffffffffffffffffffffffffff160217905550506200019b565b600080fd5b6000819050919050565b620000b781620000a2565b8114620000c357600080fd5b50565b600081519050620000d781620000ac565b92915050565b600060208284031215620000f657620000f56200009d565b5b60006200010684828501620000c6565b91505092915050565b7f4e487b7100000000000000000000000000000000000000000000000000000000600052601160045260246000fd5b60006200014b82620000a2565b91506200015883620000a2565b9250827fffffffffffffffffffffffffffffffffffffffffffffffffffffffffffffffff0382111562000190576200018f6200010f565b5b828201905092915050565b61289280620001ab6000396000f3fe6080604052600436106100e85760003560e01c80636b270ee41161008a578063c6df839811610059578063c6df8398146102b4578063d35590c2146102df578063db6d9c981461031c578063dcc6012814610345576100e8565b80636b270ee4146102355780638cb5acfe146102515780639d0ac12d1461025b578063b2ae8c5914610277576100e8565b806332d25b48116100c657806332d25b481461018957806337992614146101b4578063481c6a75146101df5780635753365a1461020a576100e8565b8063107046bd146100ed57806327690d31146101355780632adb7b191461014c575b600080fd5b3480156100f957600080fd5b50610114600480360381019061010f91906118cf565b610370565b60405161012c9c9b9a99989796959493929190611a00565b60405180910390f35b34801561014157600080fd5b5061014a6107c5565b005b34801561015857600080fd5b50610173600480360381019061016e91906118cf565b6109a3565b6040516101809190611bbb565b60405180910390f35b34801561019557600080fd5b5061019e610a44565b6040516101ab9190611bdd565b60405180910390f35b3480156101c057600080fd5b506101c9610a4a565b6040516101d69190611bdd565b60405180910390f35b3480156101eb57600080fd5b506101f4610a50565b6040516102019190611c07565b60405180910390f35b34801561021657600080fd5b5061021f610a76565b60405161022c9190611bdd565b60405180910390f35b61024f600480360381019061024a91906118cf565b610a7c565b005b610259610ba4565b005b610275600480360381019061027091906118cf565b610d39565b005b34801561028357600080fd5b5061029e600480360381019061029991906118cf565b611012565b6040516102ab9190611ce0565b60405180910390f35b3480156102c057600080fd5b506102c961107d565b6040516102d69190611bdd565b60405180910390f35b3480156102eb57600080fd5b5061030660048036038101906103019190611d2e565b611083565b6040516103139190611bdd565b60405180910390f35b34801561032857600080fd5b50610343600480360381019061033e9190611e90565b61109b565b005b34801561035157600080fd5b5061035a6111d7565b604051610367919061224e565b60405180910390f35b6000818154811061038057600080fd5b90600052602060002090600b02016000915090508060000180546103a39061229f565b80601f01602080910402602001604051908101604052809291908181526020018280546103cf9061229f565b801561041c5780601f106103f15761010080835404028352916020019161041c565b820191906000526020600020905b8154815290600101906020018083116103ff57829003601f168201915b5050505050908060010180546104319061229f565b80601f016020809104026020016040519081016040528092919081815260200182805461045d9061229f565b80156104aa5780601f1061047f576101008083540402835291602001916104aa565b820191906000526020600020905b81548152906001019060200180831161048d57829003601f168201915b5050505050908060020180546104bf9061229f565b80601f01602080910402602001604051908101604052809291908181526020018280546104eb9061229f565b80156105385780601f1061050d57610100808354040283529160200191610538565b820191906000526020600020905b81548152906001019060200180831161051b57829003601f168201915b50505050509080600301805461054d9061229f565b80601f01602080910402602001604051908101604052809291908181526020018280546105799061229f565b80156105c65780601f1061059b576101008083540402835291602001916105c6565b820191906000526020600020905b8154815290600101906020018083116105a957829003601f168201915b5050505050908060040180546105db9061229f565b80601f01602080910402602001604051908101604052809291908181526020018280546106079061229f565b80156106545780601f1061062957610100808354040283529160200191610654565b820191906000526020600020905b81548152906001019060200180831161063757829003601f168201915b5050505050908060050180546106699061229f565b80601f01602080910402602001604051908101604052809291908181526020018280546106959061229f565b80156106e25780601f106106b7576101008083540402835291602001916106e2565b820191906000526020600020905b8154815290600101906020018083116106c557829003601f168201915b5050505050908060060180546106f79061229f565b80601f01602080910402602001604051908101604052809291908181526020018280546107239061229f565b80156107705780601f1061074557610100808354040283529160200191610770565b820191906000526020600020905b81548152906001019060200180831161075357829003601f168201915b50505050509080600701549080600801549080600901549080600a0160009054906101000a900473ffffffffffffffffffffffffffffffffffffffff169080600a0160149054906101000a900460ff1690508c565b600960009054906101000a900473ffffffffffffffffffffffffffffffffffffffff1673ffffffffffffffffffffffffffffffffffffffff163373ffffffffffffffffffffffffffffffffffffffff1614610855576040517f08c379a000000000000000000000000000000000000000000000000000000000815260040161084c90612343565b60405180910390fd5b600080600090505b6000805490508110156108a757610873816116c4565b6001600082815260200190815260200160002054826108929190612392565b9150808061089f906123e8565b91505061085d565b5060005b60008054905081101561099f578160065460016000848152602001908152602001600020546108da9190612431565b6108e491906124ba565b600082815481106108f8576108f76124eb565b5b90600052602060002090600b02016008018190555060008181548110610921576109206124eb565b5b90600052602060002090600b02016007015460008281548110610947576109466124eb565b5b90600052602060002090600b0201600801546109639190612392565b60008281548110610977576109766124eb565b5b90600052602060002090600b0201600901819055508080610997906123e8565b9150506108ab565b5050565b606060026000838152602001908152602001600020805480602002602001604051908101604052809291908181526020018280548015610a3857602002820191906000526020600020905b8160009054906101000a900473ffffffffffffffffffffffffffffffffffffffff1673ffffffffffffffffffffffffffffffffffffffff16815260200190600101908083116109ee575b50505050509050919050565b60055481565b60075481565b600960009054906101000a900473ffffffffffffffffffffffffffffffffffffffff1681565b60065481565b3460008281548110610a9157610a906124eb565b5b90600052602060002090600b02016007016000828254610ab19190612392565b9250508190555060026000828152602001908152602001600020339080600181540180825580915050600190039060005260206000200160009091909190916101000a81548173ffffffffffffffffffffffffffffffffffffffff021916908373ffffffffffffffffffffffffffffffffffffffff160217905550600360008281526020019081526020016000203490806001815401808255809150506001900390600052602060002001600090919091909150557f1eba764fbf4185e41066033fbd0cc6b39d0d4214702f39d2223f630e38ce7383813433604051610b999392919061251a565b60405180910390a150565b6005543411610be8576040517f08c379a0000000000000000000000000000000000000000000000000000000008152600401610bdf9061259d565b60405180910390fd5b6008544210610c2c576040517f08c379a0000000000000000000000000000000000000000000000000000000008152600401610c2390612609565b60405180910390fd5b6000600460003373ffffffffffffffffffffffffffffffffffffffff1673ffffffffffffffffffffffffffffffffffffffff168152602001908152602001600020541415610c8d5760076000815480929190610c87906123e8565b91905055505b34600460003373ffffffffffffffffffffffffffffffffffffffff1673ffffffffffffffffffffffffffffffffffffffff1681526020019081526020016000206000828254610cdc9190612392565b925050819055503460066000828254610cf59190612392565b925050819055507f0f890b7c898b17eec56b0217d8a2a8c0f758e5b234dca7c3fc4ab16bad7162ea33600654604051610d2f929190612629565b60405180910390a1565b6001600080549050610d4b9190612652565b811115610d8d576040517f08c379a0000000000000000000000000000000000000000000000000000000008152600401610d84906126d2565b60405180910390fd5b60008181548110610da157610da06124eb565b5b90600052602060002090600b0201600a0160009054906101000a900473ffffffffffffffffffffffffffffffffffffffff1673ffffffffffffffffffffffffffffffffffffffff163373ffffffffffffffffffffffffffffffffffffffff1614610e40576040517f08c379a0000000000000000000000000000000000000000000000000000000008152600401610e379061273e565b60405180910390fd5b6000151560008281548110610e5857610e576124eb565b5b90600052602060002090600b0201600a0160149054906101000a900460ff16151514610eb9576040517f08c379a0000000000000000000000000000000000000000000000000000000008152600401610eb0906127aa565b60405180910390fd5b6000808281548110610ece57610ecd6124eb565b5b90600052602060002090600b02016009015411610f20576040517f08c379a0000000000000000000000000000000000000000000000000000000008152600401610f179061283c565b60405180910390fd5b60008181548110610f3457610f336124eb565b5b90600052602060002090600b0201600a0160009054906101000a900473ffffffffffffffffffffffffffffffffffffffff1673ffffffffffffffffffffffffffffffffffffffff166108fc60008381548110610f9357610f926124eb565b5b90600052602060002090600b0201600901549081150290604051600060405180830381858888f19350505050158015610fd0573d6000803e3d6000fd5b50600160008281548110610fe757610fe66124eb565b5b90600052602060002090600b0201600a0160146101000a81548160ff02191690831515021790555050565b60606003600083815260200190815260200160002080548060200260200160405190810160405280929190818152602001828054801561107157602002820191906000526020600020905b81548152602001906001019080831161105d575b50505050509050919050565b60085481565b60046020528060005260406000206000915090505481565b6000806001816001815401808255809150500390600052602060002090600b02019050878160000190805190602001906110d69291906117e2565b50868160010190805190602001906110ef9291906117e2565b50858160020190805190602001906111089291906117e2565b50848160030190805190602001906111219291906117e2565b508381600401908051906020019061113a9291906117e2565b50828160050190805190602001906111539291906117e2565b508181600601908051906020019061116c9291906117e2565b503381600a0160006101000a81548173ffffffffffffffffffffffffffffffffffffffff021916908373ffffffffffffffffffffffffffffffffffffffff160217905550600081600a0160146101000a81548160ff0219169083151502179055505050505050505050565b60606000805480602002602001604051908101604052809291908181526020016000905b828210156116bb57838290600052602060002090600b02016040518061018001604052908160008201805461122f9061229f565b80601f016020809104026020016040519081016040528092919081815260200182805461125b9061229f565b80156112a85780601f1061127d576101008083540402835291602001916112a8565b820191906000526020600020905b81548152906001019060200180831161128b57829003601f168201915b505050505081526020016001820180546112c19061229f565b80601f01602080910402602001604051908101604052809291908181526020018280546112ed9061229f565b801561133a5780601f1061130f5761010080835404028352916020019161133a565b820191906000526020600020905b81548152906001019060200180831161131d57829003601f168201915b505050505081526020016002820180546113539061229f565b80601f016020809104026020016040519081016040528092919081815260200182805461137f9061229f565b80156113cc5780601f106113a1576101008083540402835291602001916113cc565b820191906000526020600020905b8154815290600101906020018083116113af57829003601f168201915b505050505081526020016003820180546113e59061229f565b80601f01602080910402602001604051908101604052809291908181526020018280546114119061229f565b801561145e5780601f106114335761010080835404028352916020019161145e565b820191906000526020600020905b81548152906001019060200180831161144157829003601f168201915b505050505081526020016004820180546114779061229f565b80601f01602080910402602001604051908101604052809291908181526020018280546114a39061229f565b80156114f05780601f106114c5576101008083540402835291602001916114f0565b820191906000526020600020905b8154815290600101906020018083116114d357829003601f168201915b505050505081526020016005820180546115099061229f565b80601f01602080910402602001604051908101604052809291908181526020018280546115359061229f565b80156115825780601f1061155757610100808354040283529160200191611582565b820191906000526020600020905b81548152906001019060200180831161156557829003601f168201915b5050505050815260200160068201805461159b9061229f565b80601f01602080910402602001604051908101604052809291908181526020018280546115c79061229f565b80156116145780601f106115e957610100808354040283529160200191611614565b820191906000526020600020905b8154815290600101906020018083116115f757829003601f168201915b50505050508152602001600782015481526020016008820154815260200160098201548152602001600a820160009054906101000a900473ffffffffffffffffffffffffffffffffffffffff1673ffffffffffffffffffffffffffffffffffffffff1673ffffffffffffffffffffffffffffffffffffffff168152602001600a820160149054906101000a900460ff161515151581525050815260200190600101906111fb565b50505050905090565b6000805b6116d183611012565b5181101561173257611712620186a06116e985611012565b83815181106116fb576116fa6124eb565b5b602002602001015161170d9190612431565b611768565b8261171d9190612392565b9150808061172a906123e8565b9150506116c8565b50620186a081826117439190612431565b61174d91906124ba565b60016000848152602001908152602001600020819055505050565b600060038211156117cf578190506000600160028461178791906124ba565b6117919190612392565b90505b818110156117c95780915060028182856117ae91906124ba565b6117b89190612392565b6117c291906124ba565b9050611794565b506117dd565b600082146117dc57600190505b5b919050565b8280546117ee9061229f565b90600052602060002090601f0160209004810192826118105760008555611857565b82601f1061182957805160ff1916838001178555611857565b82800160010185558215611857579182015b8281111561185657825182559160200191906001019061183b565b5b5090506118649190611868565b5090565b5b80821115611881576000816000905550600101611869565b5090565b6000604051905090565b600080fd5b600080fd5b6000819050919050565b6118ac81611899565b81146118b757600080fd5b50565b6000813590506118c9816118a3565b92915050565b6000602082840312156118e5576118e461188f565b5b60006118f3848285016118ba565b91505092915050565b600081519050919050565b600082825260208201905092915050565b60005b8381101561193657808201518184015260208101905061191b565b83811115611945576000848401525b50505050565b6000601f19601f8301169050919050565b6000611967826118fc565b6119718185611907565b9350611981818560208601611918565b61198a8161194b565b840191505092915050565b61199e81611899565b82525050565b600073ffffffffffffffffffffffffffffffffffffffff82169050919050565b60006119cf826119a4565b9050919050565b6119df816119c4565b82525050565b60008115159050919050565b6119fa816119e5565b82525050565b6000610180820190508181036000830152611a1b818f61195c565b90508181036020830152611a2f818e61195c565b90508181036040830152611a43818d61195c565b90508181036060830152611a57818c61195c565b90508181036080830152611a6b818b61195c565b905081810360a0830152611a7f818a61195c565b905081810360c0830152611a93818961195c565b9050611aa260e0830188611995565b611ab0610100830187611995565b611abe610120830186611995565b611acc6101408301856119d6565b611ada6101608301846119f1565b9d9c50505050505050505050505050565b600081519050919050565b600082825260208201905092915050565b6000819050602082019050919050565b6000611b22826119a4565b9050919050565b611b3281611b17565b82525050565b6000611b448383611b29565b60208301905092915050565b6000602082019050919050565b6000611b6882611aeb565b611b728185611af6565b9350611b7d83611b07565b8060005b83811015611bae578151611b958882611b38565b9750611ba083611b50565b925050600181019050611b81565b5085935050505092915050565b60006020820190508181036000830152611bd58184611b5d565b905092915050565b6000602082019050611bf26000830184611995565b92915050565b611c0181611b17565b82525050565b6000602082019050611c1c6000830184611bf8565b92915050565b600081519050919050565b600082825260208201905092915050565b6000819050602082019050919050565b611c5781611899565b82525050565b6000611c698383611c4e565b60208301905092915050565b6000602082019050919050565b6000611c8d82611c22565b611c978185611c2d565b9350611ca283611c3e565b8060005b83811015611cd3578151611cba8882611c5d565b9750611cc583611c75565b925050600181019050611ca6565b5085935050505092915050565b60006020820190508181036000830152611cfa8184611c82565b905092915050565b611d0b81611b17565b8114611d1657600080fd5b50565b600081359050611d2881611d02565b92915050565b600060208284031215611d4457611d4361188f565b5b6000611d5284828501611d19565b91505092915050565b600080fd5b600080fd5b7f4e487b7100000000000000000000000000000000000000000000000000000000600052604160045260246000fd5b611d9d8261194b565b810181811067ffffffffffffffff82111715611dbc57611dbb611d65565b5b80604052505050565b6000611dcf611885565b9050611ddb8282611d94565b919050565b600067ffffffffffffffff821115611dfb57611dfa611d65565b5b611e048261194b565b9050602081019050919050565b82818337600083830152505050565b6000611e33611e2e84611de0565b611dc5565b905082815260208101848484011115611e4f57611e4e611d60565b5b611e5a848285611e11565b509392505050565b600082601f830112611e7757611e76611d5b565b5b8135611e87848260208601611e20565b91505092915050565b600080600080600080600060e0888a031215611eaf57611eae61188f565b5b600088013567ffffffffffffffff811115611ecd57611ecc611894565b5b611ed98a828b01611e62565b975050602088013567ffffffffffffffff811115611efa57611ef9611894565b5b611f068a828b01611e62565b965050604088013567ffffffffffffffff811115611f2757611f26611894565b5b611f338a828b01611e62565b955050606088013567ffffffffffffffff811115611f5457611f53611894565b5b611f608a828b01611e62565b945050608088013567ffffffffffffffff811115611f8157611f80611894565b5b611f8d8a828b01611e62565b93505060a088013567ffffffffffffffff811115611fae57611fad611894565b5b611fba8a828b01611e62565b92505060c088013567ffffffffffffffff811115611fdb57611fda611894565b5b611fe78a828b01611e62565b91505092959891949750929550565b600081519050919050565b600082825260208201905092915050565b6000819050602082019050919050565b600082825260208201905092915050565b600061203e826118fc565b6120488185612022565b9350612058818560208601611918565b6120618161194b565b840191505092915050565b612075816119c4565b82525050565b612084816119e5565b82525050565b60006101808301600083015184820360008601526120a88282612033565b915050602083015184820360208601526120c28282612033565b915050604083015184820360408601526120dc8282612033565b915050606083015184820360608601526120f68282612033565b915050608083015184820360808601526121108282612033565b91505060a083015184820360a086015261212a8282612033565b91505060c083015184820360c08601526121448282612033565b91505060e083015161215960e0860182611c4e565b5061010083015161216e610100860182611c4e565b50610120830151612183610120860182611c4e565b5061014083015161219861014086018261206c565b506101608301516121ad61016086018261207b565b508091505092915050565b60006121c4838361208a565b905092915050565b6000602082019050919050565b60006121e482611ff6565b6121ee8185612001565b93508360208202850161220085612012565b8060005b8581101561223c578484038952815161221d85826121b8565b9450612228836121cc565b925060208a01995050600181019050612204565b50829750879550505050505092915050565b6000602082019050818103600083015261226881846121d9565b905092915050565b7f4e487b7100000000000000000000000000000000000000000000000000000000600052602260045260246000fd5b600060028204905060018216806122b757607f821691505b602082108114156122cb576122ca612270565b5b50919050565b7f4f6e6c79206d616e616765722063616e2063616c6c20746869732066756e637460008201527f696f6e0000000000000000000000000000000000000000000000000000000000602082015250565b600061232d602383611907565b9150612338826122d1565b604082019050919050565b6000602082019050818103600083015261235c81612320565b9050919050565b7f4e487b7100000000000000000000000000000000000000000000000000000000600052601160045260246000fd5b600061239d82611899565b91506123a883611899565b9250827fffffffffffffffffffffffffffffffffffffffffffffffffffffffffffffffff038211156123dd576123dc612363565b5b828201905092915050565b60006123f382611899565b91507fffffffffffffffffffffffffffffffffffffffffffffffffffffffffffffffff82141561242657612425612363565b5b600182019050919050565b600061243c82611899565b915061244783611899565b9250817fffffffffffffffffffffffffffffffffffffffffffffffffffffffffffffffff04831182151516156124805761247f612363565b5b828202905092915050565b7f4e487b7100000000000000000000000000000000000000000000000000000000600052601260045260246000fd5b60006124c582611899565b91506124d083611899565b9250826124e0576124df61248b565b5b828204905092915050565b7f4e487b7100000000000000000000000000000000000000000000000000000000600052603260045260246000fd5b600060608201905061252f6000830186611995565b61253c6020830185611995565b6125496040830184611bf8565b949350505050565b7f4d696e696d756d20436f6e747269627574696f6e206973206e6f74206d657400600082015250565b6000612587601f83611907565b915061259282612551565b602082019050919050565b600060208201905081810360008301526125b68161257a565b9050919050565b7f446561646c696e65206861732070617373656400000000000000000000000000600082015250565b60006125f3601383611907565b91506125fe826125bd565b602082019050919050565b60006020820190508181036000830152612622816125e6565b9050919050565b600060408201905061263e6000830185611bf8565b61264b6020830184611995565b9392505050565b600061265d82611899565b915061266883611899565b92508282101561267b5761267a612363565b5b828203905092915050565b7f50726f6a656374206e6f7420666f756e64000000000000000000000000000000600082015250565b60006126bc601183611907565b91506126c782612686565b602082019050919050565b600060208201905081810360008301526126eb816126af565b9050919050565b7f4f6e6c792070726f6a656374206f776e65722061726520616c6c6f7765642100600082015250565b6000612728601f83611907565b9150612733826126f2565b602082019050919050565b600060208201905081810360008301526127578161271b565b9050919050565b7f416d6f756e7420616c7265616479207061696400000000000000000000000000600082015250565b6000612794601383611907565b915061279f8261275e565b602082019050919050565b600060208201905081810360008301526127c381612787565b9050919050565b7f536f72727921204e6f20636f6e747269627574696f6e20666f7220746865207060008201527f726f6a6563740000000000000000000000000000000000000000000000000000602082015250565b6000612826602683611907565b9150612831826127ca565b604082019050919050565b6000602082019050818103600083015261285581612819565b905091905056fea2646970667358221220ba2c199dcc45f8595db010ded14ec6033a5f31b2f702afe9e0c7dec971a6378364736f6c634300080a0033",
  "immutableReferences": {},
  "source": "// SPDX-License-Identifier: MIT\npragma solidity >=0.4.22 <0.9.0;\nimport \"./Contribution.sol\";\n\ncontract Sponsors is Contribution{\n    mapping(address => uint256) public sponsors;\n    uint256 public sponsorsMinAmount;\n    uint256 public sponsorsRaisedAmount;\n    uint256 public noOfSponsors;\n    uint256 public sponsorsDeadline;\n    address public manager;\n    \n    constructor(uint256 _minAmount){\n        sponsorsMinAmount = _minAmount;\n        sponsorsDeadline = block.timestamp + 2 days;\n        manager = msg.sender;\n    }\n\n    event sponsorDonation(address _sponsor, uint256 _totalAmount);\n    modifier beforeEndTime() {\n        require(block.timestamp < sponsorsDeadline, \"Deadline has passed\");\n        _;\n    }\n    \n    modifier minAmount() {\n        require(\n            msg.value > sponsorsMinAmount,\n            \"Minimum Contribution is not met\"\n        );\n        _;\n    }\n\n    function sendSponsorAmount() public payable minAmount beforeEndTime {\n        // if sponsors is contributing for the first time\n        if (sponsors[msg.sender] == 0) {\n            noOfSponsors++;\n        }\n        sponsors[msg.sender] += msg.value;\n        sponsorsRaisedAmount += msg.value;\n\n        emit sponsorDonation(msg.sender, sponsorsRaisedAmount);\n    }\n\n    modifier onlyManager() {\n        require(msg.sender == manager, \"Only manager can call this function\");\n        _;\n    }\n\n    function generateMatchAmount() public onlyManager{\n        uint total;\n        for(uint i=0; i<ProjectListing.projects.length; i++) {\n            Contribution.generatingMatchAmount(i);\n            total+=Contribution.projectIdToMatchAmount[i];\n        }\n        for(uint i=0; i<ProjectListing.projects.length; i++) {\n            projects[i].matchAmount=(Contribution.projectIdToMatchAmount[i] * sponsorsRaisedAmount) / total; \n            projects[i].finalAmount = projects[i].matchAmount+ projects[i].totalContribution;\n        }\n\n    }\n    function sendFinalAmount(uint _projectId) public payable {\n        // Checking for valid project id\n        require(_projectId <= projects.length-1, \"Project not found\");\n        \n        // checking if the function called is the project owner by comparing msg.sender and owner of the project\n        require(msg.sender == projects[_projectId].projectOwner, \"Only project owner are allowed!\");\n\n        // If the final amount is already paid to the project owner\n        require(projects[_projectId].paid == false, \"Amount already paid\");\n        \n        // If final amount of the project is 0\n        require(projects[_projectId].finalAmount > 0, \"Sorry! No contribution for the project\");\n\n        projects[_projectId].projectOwner.transfer(projects[_projectId].finalAmount);\n        projects[_projectId].paid = true;\n\n\n    }\n}\n",
  "sourcePath": "/Users/swahimnamdev/Documents/blockchain/quadratic-crowd-funding/blockchain/contracts/Sponsors.sol",
  "compiler": {
    "name": "solc",
    "version": "0.8.10+commit.fc410830.Emscripten.clang"
  },
  "schemaVersion": "3.4.4",
  "updatedAt": "2022-01-17T12:58:41.047Z",
  "networkType": "ethereum",
  "devdoc": {
    "kind": "dev",
    "methods": {},
    "version": 1
  },
  "userdoc": {
    "kind": "user",
    "methods": {},
    "version": 1
  }
}