{
  "contractName": "Sponsors",
  "abi": [
    {
      "inputs": [
        {
          "internalType": "uint256",
          "name": "_minAmount",
          "type": "uint256"
        }
      ],
      "stateMutability": "nonpayable",
      "type": "constructor"
    },
    {
      "anonymous": false,
      "inputs": [
        {
          "indexed": false,
          "internalType": "uint256",
          "name": "_projectId",
          "type": "uint256"
        },
        {
          "indexed": false,
          "internalType": "uint256",
          "name": "_amount",
          "type": "uint256"
        },
        {
          "indexed": false,
          "internalType": "address",
          "name": "_contributor",
          "type": "address"
        }
      ],
      "name": "NewContribution",
      "type": "event"
    },
    {
      "anonymous": false,
      "inputs": [
        {
          "indexed": false,
          "internalType": "address",
          "name": "_sponsor",
          "type": "address"
        },
        {
          "indexed": false,
          "internalType": "uint256",
          "name": "_totalAmount",
          "type": "uint256"
        }
      ],
      "name": "sponsorDonation",
      "type": "event"
    },
    {
      "inputs": [
        {
          "internalType": "uint256",
          "name": "_projectId",
          "type": "uint256"
        }
      ],
      "name": "acceptContribution",
      "outputs": [],
      "stateMutability": "payable",
      "type": "function",
      "payable": true
    },
    {
      "inputs": [],
      "name": "createTime",
      "outputs": [
        {
          "internalType": "uint256",
          "name": "",
          "type": "uint256"
        }
      ],
      "stateMutability": "view",
      "type": "function",
      "constant": true
    },
    {
      "inputs": [
        {
          "internalType": "uint256",
          "name": "_projectId",
          "type": "uint256"
        }
      ],
      "name": "getContributersByProjectId",
      "outputs": [
        {
          "internalType": "address[]",
          "name": "",
          "type": "address[]"
        }
      ],
      "stateMutability": "view",
      "type": "function",
      "constant": true
    },
    {
      "inputs": [
        {
          "internalType": "uint256",
          "name": "_projectId",
          "type": "uint256"
        }
      ],
      "name": "getContributionPerProject",
      "outputs": [
        {
          "internalType": "uint256[]",
          "name": "",
          "type": "uint256[]"
        }
      ],
      "stateMutability": "view",
      "type": "function",
      "constant": true
    },
    {
      "inputs": [],
      "name": "getProjects",
      "outputs": [
        {
          "components": [
            {
              "internalType": "string",
              "name": "title",
              "type": "string"
            },
            {
              "internalType": "string",
              "name": "pitch",
              "type": "string"
            },
            {
              "internalType": "string",
              "name": "description",
              "type": "string"
            },
            {
              "internalType": "string",
              "name": "logo",
              "type": "string"
            },
            {
              "internalType": "string",
              "name": "website",
              "type": "string"
            },
            {
              "internalType": "string",
              "name": "category",
              "type": "string"
            },
            {
              "internalType": "string",
              "name": "tags",
              "type": "string"
            },
            {
              "internalType": "string",
              "name": "projectImage",
              "type": "string"
            },
            {
              "internalType": "uint256",
              "name": "totalContribution",
              "type": "uint256"
            },
            {
              "internalType": "uint256",
              "name": "matchAmount",
              "type": "uint256"
            },
            {
              "internalType": "uint256",
              "name": "finalAmount",
              "type": "uint256"
            },
            {
              "internalType": "address payable",
              "name": "projectOwner",
              "type": "address"
            },
            {
              "internalType": "bool",
              "name": "paid",
              "type": "bool"
            }
          ],
          "internalType": "struct ProjectListing.Project[]",
          "name": "",
          "type": "tuple[]"
        }
      ],
      "stateMutability": "view",
      "type": "function",
      "constant": true
    },
    {
      "inputs": [
        {
          "internalType": "string",
          "name": "_title",
          "type": "string"
        },
        {
          "internalType": "string",
          "name": "_pitch",
          "type": "string"
        },
        {
          "internalType": "string",
          "name": "_description",
          "type": "string"
        },
        {
          "internalType": "string",
          "name": "_logo",
          "type": "string"
        },
        {
          "internalType": "string",
          "name": "_website",
          "type": "string"
        },
        {
          "internalType": "string",
          "name": "_category",
          "type": "string"
        },
        {
          "internalType": "string",
          "name": "_tags",
          "type": "string"
        },
        {
          "internalType": "string",
          "name": "_projectImage",
          "type": "string"
        }
      ],
      "name": "listProject",
      "outputs": [],
      "stateMutability": "nonpayable",
      "type": "function"
    },
    {
      "inputs": [],
      "name": "manager",
      "outputs": [
        {
          "internalType": "address",
          "name": "",
          "type": "address"
        }
      ],
      "stateMutability": "view",
      "type": "function",
      "constant": true
    },
    {
      "inputs": [],
      "name": "noOfSponsors",
      "outputs": [
        {
          "internalType": "uint256",
          "name": "",
          "type": "uint256"
        }
      ],
      "stateMutability": "view",
      "type": "function",
      "constant": true
    },
    {
      "inputs": [
        {
          "internalType": "address",
          "name": "",
          "type": "address"
        }
      ],
      "name": "sponsors",
      "outputs": [
        {
          "internalType": "uint256",
          "name": "",
          "type": "uint256"
        }
      ],
      "stateMutability": "view",
      "type": "function",
      "constant": true
    },
    {
      "inputs": [],
      "name": "sponsorsDeadline",
      "outputs": [
        {
          "internalType": "uint256",
          "name": "",
          "type": "uint256"
        }
      ],
      "stateMutability": "view",
      "type": "function",
      "constant": true
    },
    {
      "inputs": [],
      "name": "sponsorsMinAmount",
      "outputs": [
        {
          "internalType": "uint256",
          "name": "",
          "type": "uint256"
        }
      ],
      "stateMutability": "view",
      "type": "function",
      "constant": true
    },
    {
      "inputs": [],
      "name": "sponsorsRaisedAmount",
      "outputs": [
        {
          "internalType": "uint256",
          "name": "",
          "type": "uint256"
        }
      ],
      "stateMutability": "view",
      "type": "function",
      "constant": true
    },
    {
      "inputs": [],
      "name": "sendSponsorAmount",
      "outputs": [],
      "stateMutability": "payable",
      "type": "function",
      "payable": true
    },
    {
      "inputs": [],
      "name": "generateMatchAmount",
      "outputs": [],
      "stateMutability": "nonpayable",
      "type": "function"
    },
    {
      "inputs": [
        {
          "internalType": "uint256",
          "name": "_projectId",
          "type": "uint256"
        }
      ],
      "name": "sendFinalAmount",
      "outputs": [],
      "stateMutability": "payable",
      "type": "function",
      "payable": true
    }
  ],
  "bytecode": "0x60806040523480156200001157600080fd5b506040516200258d3803806200258d8339818101604052810190620000379190620000e4565b42600081905550806006819055506202a3004262000056919062000145565b60098190555033600a60006101000a81548173ffffffffffffffffffffffffffffffffffffffff021916908373ffffffffffffffffffffffffffffffffffffffff16021790555050620001a2565b600080fd5b6000819050919050565b620000be81620000a9565b8114620000ca57600080fd5b50565b600081519050620000de81620000b3565b92915050565b600060208284031215620000fd57620000fc620000a4565b5b60006200010d84828501620000cd565b91505092915050565b7f4e487b7100000000000000000000000000000000000000000000000000000000600052601160045260246000fd5b60006200015282620000a9565b91506200015f83620000a9565b9250827fffffffffffffffffffffffffffffffffffffffffffffffffffffffffffffffff0382111562000197576200019662000116565b5b828201905092915050565b6123db80620001b26000396000f3fe6080604052600436106100e85760003560e01c806361dcd7ab1161008a578063b2ae8c5911610059578063b2ae8c5914610283578063c6df8398146102c0578063d35590c2146102eb578063dcc6012814610328576100e8565b806361dcd7ab146102165780636b270ee4146102415780638cb5acfe1461025d5780639d0ac12d14610267576100e8565b806337992614116100c6578063379926141461016c5780633f4a358014610197578063481c6a75146101c05780635753365a146101eb576100e8565b806327690d31146100ed5780632adb7b191461010457806332d25b4814610141575b600080fd5b3480156100f957600080fd5b50610102610353565b005b34801561011057600080fd5b5061012b6004803603810190610126919061150e565b610531565b604051610138919061162b565b60405180910390f35b34801561014d57600080fd5b506101566105d2565b604051610163919061165c565b60405180910390f35b34801561017857600080fd5b506101816105d8565b60405161018e919061165c565b60405180910390f35b3480156101a357600080fd5b506101be60048036038101906101b991906117bd565b6105de565b005b3480156101cc57600080fd5b506101d5610734565b6040516101e29190611962565b60405180910390f35b3480156101f757600080fd5b5061020061075a565b60405161020d919061165c565b60405180910390f35b34801561022257600080fd5b5061022b610760565b604051610238919061165c565b60405180910390f35b61025b6004803603810190610256919061150e565b610766565b005b61026561088e565b005b610281600480360381019061027c919061150e565b610a23565b005b34801561028f57600080fd5b506102aa60048036038101906102a5919061150e565b610cfb565b6040516102b79190611a3b565b60405180910390f35b3480156102cc57600080fd5b506102d5610d66565b6040516102e2919061165c565b60405180910390f35b3480156102f757600080fd5b50610312600480360381019061030d9190611a89565b610d6c565b60405161031f919061165c565b60405180910390f35b34801561033457600080fd5b5061033d610d84565b60405161034a9190611d86565b60405180910390f35b600a60009054906101000a900473ffffffffffffffffffffffffffffffffffffffff1673ffffffffffffffffffffffffffffffffffffffff163373ffffffffffffffffffffffffffffffffffffffff16146103e3576040517f08c379a00000000000000000000000000000000000000000000000000000000081526004016103da90611e2b565b60405180910390fd5b600080600090505b6001805490508110156104355761040181611303565b6002600082815260200190815260200160002054826104209190611e7a565b9150808061042d90611ed0565b9150506103eb565b5060005b60018054905081101561052d578160075460026000848152602001908152602001600020546104689190611f19565b6104729190611fa2565b6001828154811061048657610485611fd3565b5b90600052602060002090600c020160090181905550600181815481106104af576104ae611fd3565b5b90600052602060002090600c020160080154600182815481106104d5576104d4611fd3565b5b90600052602060002090600c0201600901546104f19190611e7a565b6001828154811061050557610504611fd3565b5b90600052602060002090600c0201600a0181905550808061052590611ed0565b915050610439565b5050565b6060600360008381526020019081526020016000208054806020026020016040519081016040528092919081815260200182805480156105c657602002820191906000526020600020905b8160009054906101000a900473ffffffffffffffffffffffffffffffffffffffff1673ffffffffffffffffffffffffffffffffffffffff168152602001906001019080831161057c575b50505050509050919050565b60065481565b60085481565b6000600180816001815401808255809150500390600052602060002090600c0201905088816000019080519060200190610619929190611421565b5087816001019080519060200190610632929190611421565b508681600201908051906020019061064b929190611421565b5085816003019080519060200190610664929190611421565b508481600401908051906020019061067d929190611421565b5083816005019080519060200190610696929190611421565b50828160060190805190602001906106af929190611421565b50818160070190805190602001906106c8929190611421565b503381600b0160006101000a81548173ffffffffffffffffffffffffffffffffffffffff021916908373ffffffffffffffffffffffffffffffffffffffff160217905550600081600b0160146101000a81548160ff021916908315150217905550505050505050505050565b600a60009054906101000a900473ffffffffffffffffffffffffffffffffffffffff1681565b60075481565b60005481565b346001828154811061077b5761077a611fd3565b5b90600052602060002090600c0201600801600082825461079b9190611e7a565b9250508190555060036000828152602001908152602001600020339080600181540180825580915050600190039060005260206000200160009091909190916101000a81548173ffffffffffffffffffffffffffffffffffffffff021916908373ffffffffffffffffffffffffffffffffffffffff160217905550600460008281526020019081526020016000203490806001815401808255809150506001900390600052602060002001600090919091909150557f1eba764fbf4185e41066033fbd0cc6b39d0d4214702f39d2223f630e38ce738381343360405161088393929190612002565b60405180910390a150565b60065434116108d2576040517f08c379a00000000000000000000000000000000000000000000000000000000081526004016108c990612085565b60405180910390fd5b6009544210610916576040517f08c379a000000000000000000000000000000000000000000000000000000000815260040161090d906120f1565b60405180910390fd5b6000600560003373ffffffffffffffffffffffffffffffffffffffff1673ffffffffffffffffffffffffffffffffffffffff168152602001908152602001600020541415610977576008600081548092919061097190611ed0565b91905055505b34600560003373ffffffffffffffffffffffffffffffffffffffff1673ffffffffffffffffffffffffffffffffffffffff16815260200190815260200160002060008282546109c69190611e7a565b9250508190555034600760008282546109df9190611e7a565b925050819055507f0f890b7c898b17eec56b0217d8a2a8c0f758e5b234dca7c3fc4ab16bad7162ea33600754604051610a19929190612111565b60405180910390a1565b60018080549050610a34919061213a565b811115610a76576040517f08c379a0000000000000000000000000000000000000000000000000000000008152600401610a6d906121ba565b60405180910390fd5b60018181548110610a8a57610a89611fd3565b5b90600052602060002090600c0201600b0160009054906101000a900473ffffffffffffffffffffffffffffffffffffffff1673ffffffffffffffffffffffffffffffffffffffff163373ffffffffffffffffffffffffffffffffffffffff1614610b29576040517f08c379a0000000000000000000000000000000000000000000000000000000008152600401610b2090612226565b60405180910390fd5b6000151560018281548110610b4157610b40611fd3565b5b90600052602060002090600c0201600b0160149054906101000a900460ff16151514610ba2576040517f08c379a0000000000000000000000000000000000000000000000000000000008152600401610b9990612292565b60405180910390fd5b600060018281548110610bb857610bb7611fd3565b5b90600052602060002090600c0201600a015411610c0a576040517f08c379a0000000000000000000000000000000000000000000000000000000008152600401610c0190612324565b60405180910390fd5b60018181548110610c1e57610c1d611fd3565b5b90600052602060002090600c0201600b0160009054906101000a900473ffffffffffffffffffffffffffffffffffffffff1673ffffffffffffffffffffffffffffffffffffffff166108fc60018381548110610c7d57610c7c611fd3565b5b90600052602060002090600c0201600a01549081150290604051600060405180830381858888f19350505050158015610cba573d6000803e3d6000fd5b506001808281548110610cd057610ccf611fd3565b5b90600052602060002090600c0201600b0160146101000a81548160ff02191690831515021790555050565b606060046000838152602001908152602001600020805480602002602001604051908101604052809291908181526020018280548015610d5a57602002820191906000526020600020905b815481526020019060010190808311610d46575b50505050509050919050565b60095481565b60056020528060005260406000206000915090505481565b60606001805480602002602001604051908101604052809291908181526020016000905b828210156112fa57838290600052602060002090600c0201604051806101a0016040529081600082018054610ddc90612373565b80601f0160208091040260200160405190810160405280929190818152602001828054610e0890612373565b8015610e555780601f10610e2a57610100808354040283529160200191610e55565b820191906000526020600020905b815481529060010190602001808311610e3857829003601f168201915b50505050508152602001600182018054610e6e90612373565b80601f0160208091040260200160405190810160405280929190818152602001828054610e9a90612373565b8015610ee75780601f10610ebc57610100808354040283529160200191610ee7565b820191906000526020600020905b815481529060010190602001808311610eca57829003601f168201915b50505050508152602001600282018054610f0090612373565b80601f0160208091040260200160405190810160405280929190818152602001828054610f2c90612373565b8015610f795780601f10610f4e57610100808354040283529160200191610f79565b820191906000526020600020905b815481529060010190602001808311610f5c57829003601f168201915b50505050508152602001600382018054610f9290612373565b80601f0160208091040260200160405190810160405280929190818152602001828054610fbe90612373565b801561100b5780601f10610fe05761010080835404028352916020019161100b565b820191906000526020600020905b815481529060010190602001808311610fee57829003601f168201915b5050505050815260200160048201805461102490612373565b80601f016020809104026020016040519081016040528092919081815260200182805461105090612373565b801561109d5780601f106110725761010080835404028352916020019161109d565b820191906000526020600020905b81548152906001019060200180831161108057829003601f168201915b505050505081526020016005820180546110b690612373565b80601f01602080910402602001604051908101604052809291908181526020018280546110e290612373565b801561112f5780601f106111045761010080835404028352916020019161112f565b820191906000526020600020905b81548152906001019060200180831161111257829003601f168201915b5050505050815260200160068201805461114890612373565b80601f016020809104026020016040519081016040528092919081815260200182805461117490612373565b80156111c15780601f10611196576101008083540402835291602001916111c1565b820191906000526020600020905b8154815290600101906020018083116111a457829003601f168201915b505050505081526020016007820180546111da90612373565b80601f016020809104026020016040519081016040528092919081815260200182805461120690612373565b80156112535780601f1061122857610100808354040283529160200191611253565b820191906000526020600020905b81548152906001019060200180831161123657829003601f168201915b505050505081526020016008820154815260200160098201548152602001600a8201548152602001600b820160009054906101000a900473ffffffffffffffffffffffffffffffffffffffff1673ffffffffffffffffffffffffffffffffffffffff1673ffffffffffffffffffffffffffffffffffffffff168152602001600b820160149054906101000a900460ff16151515158152505081526020019060010190610da8565b50505050905090565b6000805b61131083610cfb565b5181101561137157611351620186a061132885610cfb565b838151811061133a57611339611fd3565b5b602002602001015161134c9190611f19565b6113a7565b8261135c9190611e7a565b9150808061136990611ed0565b915050611307565b50620186a081826113829190611f19565b61138c9190611fa2565b60026000848152602001908152602001600020819055505050565b6000600382111561140e57819050600060016002846113c69190611fa2565b6113d09190611e7a565b90505b818110156114085780915060028182856113ed9190611fa2565b6113f79190611e7a565b6114019190611fa2565b90506113d3565b5061141c565b6000821461141b57600190505b5b919050565b82805461142d90612373565b90600052602060002090601f01602090048101928261144f5760008555611496565b82601f1061146857805160ff1916838001178555611496565b82800160010185558215611496579182015b8281111561149557825182559160200191906001019061147a565b5b5090506114a391906114a7565b5090565b5b808211156114c05760008160009055506001016114a8565b5090565b6000604051905090565b600080fd5b600080fd5b6000819050919050565b6114eb816114d8565b81146114f657600080fd5b50565b600081359050611508816114e2565b92915050565b600060208284031215611524576115236114ce565b5b6000611532848285016114f9565b91505092915050565b600081519050919050565b600082825260208201905092915050565b6000819050602082019050919050565b600073ffffffffffffffffffffffffffffffffffffffff82169050919050565b600061159282611567565b9050919050565b6115a281611587565b82525050565b60006115b48383611599565b60208301905092915050565b6000602082019050919050565b60006115d88261153b565b6115e28185611546565b93506115ed83611557565b8060005b8381101561161e57815161160588826115a8565b9750611610836115c0565b9250506001810190506115f1565b5085935050505092915050565b6000602082019050818103600083015261164581846115cd565b905092915050565b611656816114d8565b82525050565b6000602082019050611671600083018461164d565b92915050565b600080fd5b600080fd5b6000601f19601f8301169050919050565b7f4e487b7100000000000000000000000000000000000000000000000000000000600052604160045260246000fd5b6116ca82611681565b810181811067ffffffffffffffff821117156116e9576116e8611692565b5b80604052505050565b60006116fc6114c4565b905061170882826116c1565b919050565b600067ffffffffffffffff82111561172857611727611692565b5b61173182611681565b9050602081019050919050565b82818337600083830152505050565b600061176061175b8461170d565b6116f2565b90508281526020810184848401111561177c5761177b61167c565b5b61178784828561173e565b509392505050565b600082601f8301126117a4576117a3611677565b5b81356117b484826020860161174d565b91505092915050565b600080600080600080600080610100898b0312156117de576117dd6114ce565b5b600089013567ffffffffffffffff8111156117fc576117fb6114d3565b5b6118088b828c0161178f565b985050602089013567ffffffffffffffff811115611829576118286114d3565b5b6118358b828c0161178f565b975050604089013567ffffffffffffffff811115611856576118556114d3565b5b6118628b828c0161178f565b965050606089013567ffffffffffffffff811115611883576118826114d3565b5b61188f8b828c0161178f565b955050608089013567ffffffffffffffff8111156118b0576118af6114d3565b5b6118bc8b828c0161178f565b94505060a089013567ffffffffffffffff8111156118dd576118dc6114d3565b5b6118e98b828c0161178f565b93505060c089013567ffffffffffffffff81111561190a576119096114d3565b5b6119168b828c0161178f565b92505060e089013567ffffffffffffffff811115611937576119366114d3565b5b6119438b828c0161178f565b9150509295985092959890939650565b61195c81611587565b82525050565b60006020820190506119776000830184611953565b92915050565b600081519050919050565b600082825260208201905092915050565b6000819050602082019050919050565b6119b2816114d8565b82525050565b60006119c483836119a9565b60208301905092915050565b6000602082019050919050565b60006119e88261197d565b6119f28185611988565b93506119fd83611999565b8060005b83811015611a2e578151611a1588826119b8565b9750611a20836119d0565b925050600181019050611a01565b5085935050505092915050565b60006020820190508181036000830152611a5581846119dd565b905092915050565b611a6681611587565b8114611a7157600080fd5b50565b600081359050611a8381611a5d565b92915050565b600060208284031215611a9f57611a9e6114ce565b5b6000611aad84828501611a74565b91505092915050565b600081519050919050565b600082825260208201905092915050565b6000819050602082019050919050565b600081519050919050565b600082825260208201905092915050565b60005b83811015611b1c578082015181840152602081019050611b01565b83811115611b2b576000848401525b50505050565b6000611b3c82611ae2565b611b468185611aed565b9350611b56818560208601611afe565b611b5f81611681565b840191505092915050565b6000611b7582611567565b9050919050565b611b8581611b6a565b82525050565b60008115159050919050565b611ba081611b8b565b82525050565b60006101a0830160008301518482036000860152611bc48282611b31565b91505060208301518482036020860152611bde8282611b31565b91505060408301518482036040860152611bf88282611b31565b91505060608301518482036060860152611c128282611b31565b91505060808301518482036080860152611c2c8282611b31565b91505060a083015184820360a0860152611c468282611b31565b91505060c083015184820360c0860152611c608282611b31565b91505060e083015184820360e0860152611c7a8282611b31565b915050610100830151611c916101008601826119a9565b50610120830151611ca66101208601826119a9565b50610140830151611cbb6101408601826119a9565b50610160830151611cd0610160860182611b7c565b50610180830151611ce5610180860182611b97565b508091505092915050565b6000611cfc8383611ba6565b905092915050565b6000602082019050919050565b6000611d1c82611ab6565b611d268185611ac1565b935083602082028501611d3885611ad2565b8060005b85811015611d745784840389528151611d558582611cf0565b9450611d6083611d04565b925060208a01995050600181019050611d3c565b50829750879550505050505092915050565b60006020820190508181036000830152611da08184611d11565b905092915050565b600082825260208201905092915050565b7f4f6e6c79206d616e616765722063616e2063616c6c20746869732066756e637460008201527f696f6e0000000000000000000000000000000000000000000000000000000000602082015250565b6000611e15602383611da8565b9150611e2082611db9565b604082019050919050565b60006020820190508181036000830152611e4481611e08565b9050919050565b7f4e487b7100000000000000000000000000000000000000000000000000000000600052601160045260246000fd5b6000611e85826114d8565b9150611e90836114d8565b9250827fffffffffffffffffffffffffffffffffffffffffffffffffffffffffffffffff03821115611ec557611ec4611e4b565b5b828201905092915050565b6000611edb826114d8565b91507fffffffffffffffffffffffffffffffffffffffffffffffffffffffffffffffff821415611f0e57611f0d611e4b565b5b600182019050919050565b6000611f24826114d8565b9150611f2f836114d8565b9250817fffffffffffffffffffffffffffffffffffffffffffffffffffffffffffffffff0483118215151615611f6857611f67611e4b565b5b828202905092915050565b7f4e487b7100000000000000000000000000000000000000000000000000000000600052601260045260246000fd5b6000611fad826114d8565b9150611fb8836114d8565b925082611fc857611fc7611f73565b5b828204905092915050565b7f4e487b7100000000000000000000000000000000000000000000000000000000600052603260045260246000fd5b6000606082019050612017600083018661164d565b612024602083018561164d565b6120316040830184611953565b949350505050565b7f4d696e696d756d20436f6e747269627574696f6e206973206e6f74206d657400600082015250565b600061206f601f83611da8565b915061207a82612039565b602082019050919050565b6000602082019050818103600083015261209e81612062565b9050919050565b7f446561646c696e65206861732070617373656400000000000000000000000000600082015250565b60006120db601383611da8565b91506120e6826120a5565b602082019050919050565b6000602082019050818103600083015261210a816120ce565b9050919050565b60006040820190506121266000830185611953565b612133602083018461164d565b9392505050565b6000612145826114d8565b9150612150836114d8565b92508282101561216357612162611e4b565b5b828203905092915050565b7f50726f6a656374206e6f7420666f756e64000000000000000000000000000000600082015250565b60006121a4601183611da8565b91506121af8261216e565b602082019050919050565b600060208201905081810360008301526121d381612197565b9050919050565b7f4f6e6c792070726f6a656374206f776e65722061726520616c6c6f7765642100600082015250565b6000612210601f83611da8565b915061221b826121da565b602082019050919050565b6000602082019050818103600083015261223f81612203565b9050919050565b7f416d6f756e7420616c7265616479207061696400000000000000000000000000600082015250565b600061227c601383611da8565b915061228782612246565b602082019050919050565b600060208201905081810360008301526122ab8161226f565b9050919050565b7f536f72727921204e6f20636f6e747269627574696f6e20666f7220746865207060008201527f726f6a6563740000000000000000000000000000000000000000000000000000602082015250565b600061230e602683611da8565b9150612319826122b2565b604082019050919050565b6000602082019050818103600083015261233d81612301565b9050919050565b7f4e487b7100000000000000000000000000000000000000000000000000000000600052602260045260246000fd5b6000600282049050600182168061238b57607f821691505b6020821081141561239f5761239e612344565b5b5091905056fea26469706673582212203975df071325f13166df081db9e397000500c24871e16f21c9c2b20a4b5104f364736f6c634300080a0033",
  "immutableReferences": {},
  "source": "// SPDX-License-Identifier: MIT\r\npragma solidity >=0.4.22 <0.9.0;\r\nimport \"./Contribution.sol\";\r\n\r\ncontract Sponsors is Contribution{\r\n    mapping(address => uint256) public sponsors;\r\n    uint256 public sponsorsMinAmount;\r\n    uint256 public sponsorsRaisedAmount;\r\n    uint256 public noOfSponsors;\r\n    uint256 public sponsorsDeadline;\r\n    address public manager;\r\n    \r\n    constructor(uint256 _minAmount){\r\n        sponsorsMinAmount = _minAmount;\r\n        sponsorsDeadline = block.timestamp + 2 days;\r\n        manager = msg.sender;\r\n    }\r\n\r\n    event sponsorDonation(address _sponsor, uint256 _totalAmount);\r\n    modifier beforeEndTime() {\r\n        require(block.timestamp < sponsorsDeadline, \"Deadline has passed\");\r\n        _;\r\n    }\r\n    modifier afterEndTime() {\r\n        require(block.timestamp > ProjectListing.createTime );\r\n        _;\r\n    }\r\n    modifier minAmount() {\r\n        require(\r\n            msg.value > sponsorsMinAmount,\r\n            \"Minimum Contribution is not met\"\r\n        );\r\n        _;\r\n    }\r\n\r\n    function sendSponsorAmount() public payable minAmount beforeEndTime {\r\n        // if sponsors is contributing for the first time\r\n        if (sponsors[msg.sender] == 0) {\r\n            noOfSponsors++;\r\n        }\r\n        sponsors[msg.sender] += msg.value;\r\n        sponsorsRaisedAmount += msg.value;\r\n\r\n        emit sponsorDonation(msg.sender, sponsorsRaisedAmount);\r\n    }\r\n\r\n    modifier onlyManager() {\r\n        require(msg.sender == manager, \"Only manager can call this function\");\r\n        _;\r\n    }\r\n\r\n    function generateMatchAmount() public onlyManager{\r\n        uint total;\r\n        for(uint i=0; i<ProjectListing.projects.length; i++) {\r\n            Contribution.generatingMatchAmount(i);\r\n            total+=Contribution.projectIdToMatchAmount[i];\r\n        }\r\n        for(uint i=0; i<ProjectListing.projects.length; i++) {\r\n            projects[i].matchAmount=(Contribution.projectIdToMatchAmount[i] * sponsorsRaisedAmount) / total; \r\n            projects[i].finalAmount = projects[i].matchAmount+ projects[i].totalContribution;\r\n        }\r\n\r\n    }\r\n    function sendFinalAmount(uint _projectId) public payable {\r\n        // Checking for valid project id\r\n        require(_projectId <= projects.length-1, \"Project not found\");\r\n        \r\n        // checking if the function called is the project owner by comparing msg.sender and owner of the project\r\n        require(msg.sender == projects[_projectId].projectOwner, \"Only project owner are allowed!\");\r\n\r\n        // If the final amount is already paid to the project owner\r\n        require(projects[_projectId].paid == false, \"Amount already paid\");\r\n        \r\n        // If final amount of the project is 0\r\n        require(projects[_projectId].finalAmount > 0, \"Sorry! No contribution for the project\");\r\n\r\n        projects[_projectId].projectOwner.transfer(projects[_projectId].finalAmount);\r\n        projects[_projectId].paid = true;\r\n\r\n\r\n    }\r\n}\r\n",
  "sourcePath": "C:\\Users\\ss\\Desktop\\quadratic-crowd-funding\\blockchain\\contracts\\Sponsors.sol",
  "compiler": {
    "name": "solc",
    "version": "0.8.10+commit.fc410830.Emscripten.clang"
  },
  "schemaVersion": "3.4.4",
  "updatedAt": "2022-01-12T17:35:01.569Z",
  "networkType": "ethereum",
  "devdoc": {
    "kind": "dev",
    "methods": {},
    "version": 1
  },
  "userdoc": {
    "kind": "user",
    "methods": {},
    "version": 1
  }
}